{
  "contractName": "Broadcaster",
  "abi": [
    {
      "inputs": [],
      "payable": false,
      "stateMutability": "nonpayable",
      "type": "constructor",
      "signature": "constructor"
    },
    {
      "anonymous": false,
      "inputs": [
        {
          "indexed": false,
          "name": "timestamp",
          "type": "uint256"
        },
        {
          "indexed": false,
          "name": "output",
          "type": "string"
        }
      ],
      "name": "Broadcast",
      "type": "event",
      "signature": "0x1acca67956ccf33f0b56b1ec135c0e0f673868b03db9f51c6fc2b04124a368e2"
    },
    {
      "constant": false,
      "inputs": [
        {
          "name": "output",
          "type": "string"
        }
      ],
      "name": "broadcast",
      "outputs": [
        {
          "name": "",
          "type": "bool"
        }
      ],
      "payable": false,
      "stateMutability": "nonpayable",
      "type": "function",
      "signature": "0x0cd0563b"
    }
  ],
  "bytecode": "0x608060405234801561001057600080fd5b507f1acca67956ccf33f0b56b1ec135c0e0f673868b03db9f51c6fc2b04124a368e2426040518082815260200180602001828103825260118152602001807f436f6e74726163742043726561746564210000000000000000000000000000008152506020019250505060405180910390a16101fb806100906000396000f3fe608060405234801561001057600080fd5b5060043610610048576000357c0100000000000000000000000000000000000000000000000000000000900480630cd0563b1461004d575b600080fd5b6101066004803603602081101561006357600080fd5b810190808035906020019064010000000081111561008057600080fd5b82018360208201111561009257600080fd5b803590602001918460018302840111640100000000831117156100b457600080fd5b91908080601f016020809104026020016040519081016040528093929190818152602001838380828437600081840152601f19601f820116905080830192505050505050509192919290505050610120565b604051808215151515815260200191505060405180910390f35b60007f1acca67956ccf33f0b56b1ec135c0e0f673868b03db9f51c6fc2b04124a368e242836040518083815260200180602001828103825283818151815260200191508051906020019080838360005b8381101561018b578082015181840152602081019050610170565b50505050905090810190601f1680156101b85780820380516001836020036101000a031916815260200191505b50935050505060405180910390a16001905091905056fea165627a7a723058209259cfb317a22fcd9ca407f29888c4f1075c79228fdf51046f4779b7ecc2fcf10029",
  "source": "pragma solidity ^0.5.0;\n\ncontract Broadcaster {\n  constructor() public {\n    emit Broadcast(now,\"Contract Created!\");\n  }\n  function broadcast(string memory output) public returns (bool){\n    emit Broadcast(now,output);\n    return true;\n  }\n  event Broadcast(uint timestamp, string output);\n}\n",
  "sourcePath": "C:/Users/paulg/Documents/polats/arcade/contracts/Broadcaster.sol",
  "compiler": {
    "name": "solc",
    "version": "0.5.2+commit.1df8f40c.Emscripten.clang"
  },
  "schemaVersion": "3.0.3",
  "updatedAt": "2019-06-16T08:46:55.004Z",
  "devdoc": {
    "methods": {}
  },
  "userdoc": {
    "methods": {}
  }
}