{
  "contractName": "ERC1155MockReceiver",
  "abi": [
    {
      "constant": true,
      "inputs": [],
      "name": "lastData",
      "outputs": [
        {
          "name": "",
          "type": "bytes"
        }
      ],
      "payable": false,
      "stateMutability": "view",
      "type": "function"
    },
    {
      "constant": true,
      "inputs": [],
      "name": "shouldReject",
      "outputs": [
        {
          "name": "",
          "type": "bool"
        }
      ],
      "payable": false,
      "stateMutability": "view",
      "type": "function"
    },
    {
      "constant": true,
      "inputs": [],
      "name": "lastValue",
      "outputs": [
        {
          "name": "",
          "type": "uint256"
        }
      ],
      "payable": false,
      "stateMutability": "view",
      "type": "function"
    },
    {
      "constant": true,
      "inputs": [],
      "name": "lastOperator",
      "outputs": [
        {
          "name": "",
          "type": "address"
        }
      ],
      "payable": false,
      "stateMutability": "view",
      "type": "function"
    },
    {
      "constant": true,
      "inputs": [],
      "name": "lastFrom",
      "outputs": [
        {
          "name": "",
          "type": "address"
        }
      ],
      "payable": false,
      "stateMutability": "view",
      "type": "function"
    },
    {
      "constant": true,
      "inputs": [],
      "name": "lastId",
      "outputs": [
        {
          "name": "",
          "type": "uint256"
        }
      ],
      "payable": false,
      "stateMutability": "view",
      "type": "function"
    },
    {
      "constant": false,
      "inputs": [
        {
          "name": "_value",
          "type": "bool"
        }
      ],
      "name": "setShouldReject",
      "outputs": [],
      "payable": false,
      "stateMutability": "nonpayable",
      "type": "function"
    },
    {
      "constant": false,
      "inputs": [
        {
          "name": "_operator",
          "type": "address"
        },
        {
          "name": "_from",
          "type": "address"
        },
        {
          "name": "_id",
          "type": "uint256"
        },
        {
          "name": "_value",
          "type": "uint256"
        },
        {
          "name": "_data",
          "type": "bytes"
        }
      ],
      "name": "onERC1155Received",
      "outputs": [
        {
          "name": "",
          "type": "bytes4"
        }
      ],
      "payable": false,
      "stateMutability": "nonpayable",
      "type": "function"
    },
    {
      "constant": false,
      "inputs": [
        {
          "name": "_operator",
          "type": "address"
        },
        {
          "name": "_from",
          "type": "address"
        },
        {
          "name": "_ids",
          "type": "uint256[]"
        },
        {
          "name": "_values",
          "type": "uint256[]"
        },
        {
          "name": "_data",
          "type": "bytes"
        }
      ],
      "name": "onERC1155BatchReceived",
      "outputs": [
        {
          "name": "",
          "type": "bytes4"
        }
      ],
      "payable": false,
      "stateMutability": "nonpayable",
      "type": "function"
    },
    {
      "constant": true,
      "inputs": [
        {
          "name": "interfaceID",
          "type": "bytes4"
        }
      ],
      "name": "supportsInterface",
      "outputs": [
        {
          "name": "",
          "type": "bool"
        }
      ],
      "payable": false,
      "stateMutability": "view",
      "type": "function"
    }
  ],
  "bytecode": "0x608060405234801561001057600080fd5b50610b2d806100206000396000f3fe608060405234801561001057600080fd5b50600436106100ba576000357c01000000000000000000000000000000000000000000000000000000009004806380443378116100835780638044337814610231578063a175b6381461027b578063bc197c81146102ab578063c1292cc314610460578063f23a6e611461047e576100ba565b80626e75ec146100bf57806301ffc9a7146101425780631dbb9381146101a757806343183834146101c95780636eb3cd49146101e7575b600080fd5b6100c761059d565b6040518080602001828103825283818151815260200191508051906020019080838360005b838110156101075780820151818401526020810190506100ec565b50505050905090810190601f1680156101345780820380516001836020036101000a031916815260200191505b509250505060405180910390f35b61018d6004803603602081101561015857600080fd5b8101908080357bffffffffffffffffffffffffffffffffffffffffffffffffffffffff1916906020019092919050505061063b565b604051808215151515815260200191505060405180910390f35b6101af6106d5565b604051808215151515815260200191505060405180910390f35b6101d16106e7565b6040518082815260200191505060405180910390f35b6101ef6106ed565b604051808273ffffffffffffffffffffffffffffffffffffffff1673ffffffffffffffffffffffffffffffffffffffff16815260200191505060405180910390f35b610239610713565b604051808273ffffffffffffffffffffffffffffffffffffffff1673ffffffffffffffffffffffffffffffffffffffff16815260200191505060405180910390f35b6102a96004803603602081101561029157600080fd5b81019080803515159060200190929190505050610739565b005b61040c600480360360a08110156102c157600080fd5b81019080803573ffffffffffffffffffffffffffffffffffffffff169060200190929190803573ffffffffffffffffffffffffffffffffffffffff1690602001909291908035906020019064010000000081111561031e57600080fd5b82018360208201111561033057600080fd5b8035906020019184602083028401116401000000008311171561035257600080fd5b90919293919293908035906020019064010000000081111561037357600080fd5b82018360208201111561038557600080fd5b803590602001918460208302840111640100000000831117156103a757600080fd5b9091929391929390803590602001906401000000008111156103c857600080fd5b8201836020820111156103da57600080fd5b803590602001918460018302840111640100000000831117156103fc57600080fd5b9091929391929390505050610755565b60405180827bffffffffffffffffffffffffffffffffffffffffffffffffffffffff19167bffffffffffffffffffffffffffffffffffffffffffffffffffffffff1916815260200191505060405180910390f35b6104686108c1565b6040518082815260200191505060405180910390f35b610549600480360360a081101561049457600080fd5b81019080803573ffffffffffffffffffffffffffffffffffffffff169060200190929190803573ffffffffffffffffffffffffffffffffffffffff16906020019092919080359060200190929190803590602001909291908035906020019064010000000081111561050557600080fd5b82018360208201111561051757600080fd5b8035906020019184600183028401116401000000008311171561053957600080fd5b90919293919293905050506108c7565b60405180827bffffffffffffffffffffffffffffffffffffffffffffffffffffffff19167bffffffffffffffffffffffffffffffffffffffffffffffffffffffff1916815260200191505060405180910390f35b60018054600181600116156101000203166002900480601f0160208091040260200160405190810160405280929190818152602001828054600181600116156101000203166002900480156106335780601f1061060857610100808354040283529160200191610633565b820191906000526020600020905b81548152906001019060200180831161061657829003601f168201915b505050505081565b60006301ffc9a77c010000000000000000000000000000000000000000000000000000000002827bffffffffffffffffffffffffffffffffffffffffffffffffffffffff191614806106ce5750634e2312e07c010000000000000000000000000000000000000000000000000000000002827bffffffffffffffffffffffffffffffffffffffffffffffffffffffff1916145b9050919050565b6000809054906101000a900460ff1681565b60055481565b600260009054906101000a900473ffffffffffffffffffffffffffffffffffffffff1681565b600360009054906101000a900473ffffffffffffffffffffffffffffffffffffffff1681565b806000806101000a81548160ff02191690831515021790555050565b600088600260006101000a81548173ffffffffffffffffffffffffffffffffffffffff021916908373ffffffffffffffffffffffffffffffffffffffff16021790555087600360006101000a81548173ffffffffffffffffffffffffffffffffffffffff021916908373ffffffffffffffffffffffffffffffffffffffff1602179055508686600081811015156107e857fe5b9050602002013560048190555084846000818110151561080457fe5b90506020020135600581905550828260019190610822929190610a07565b50600115156000809054906101000a900460ff161515141561088f576040517f08c379a000000000000000000000000000000000000000000000000000000000815260040180806020018281038252602d815260200180610aad602d913960400191505060405180910390fd5b63bc197c817c010000000000000000000000000000000000000000000000000000000002905098975050505050505050565b60045481565b600086600260006101000a81548173ffffffffffffffffffffffffffffffffffffffff021916908373ffffffffffffffffffffffffffffffffffffffff16021790555085600360006101000a81548173ffffffffffffffffffffffffffffffffffffffff021916908373ffffffffffffffffffffffffffffffffffffffff160217905550846004819055508360058190555082826001919061096a929190610a07565b50600115156000809054906101000a900460ff16151514156109d7576040517f08c379a0000000000000000000000000000000000000000000000000000000008152600401808060200182810382526028815260200180610ada6028913960400191505060405180910390fd5b63f23a6e617c01000000000000000000000000000000000000000000000000000000000290509695505050505050565b828054600181600116156101000203166002900490600052602060002090601f016020900481019282601f10610a4857803560ff1916838001178555610a76565b82800160010185558215610a76579182015b82811115610a75578235825591602001919060010190610a5a565b5b509050610a839190610a87565b5090565b610aa991905b80821115610aa5576000816000905550600101610a8d565b5090565b9056fe6f6e45524331313535426174636852656365697665643a207472616e73666572206e6f742061636365707465646f6e4552433131353552656365697665643a207472616e73666572206e6f74206163636570746564a165627a7a72305820c81c32b5ff5f0701216b2e5944cff82b84c9a1256880ef73bbeacf147fca4a1a0029",
  "source": "pragma solidity ^0.5.0;\r\n\r\nimport \"./Common.sol\";\r\nimport \"./IERC1155TokenReceiver.sol\";\r\n\r\n// Contract to test safe transfer behavior.\r\ncontract ERC1155MockReceiver is ERC1155TokenReceiver, CommonConstants {\r\n\r\n    // Keep values from last received contract.\r\n    bool public shouldReject;\r\n\r\n    bytes public lastData;\r\n    address public lastOperator;\r\n    address public lastFrom;\r\n    uint256 public lastId;\r\n    uint256 public lastValue;\r\n\r\n    function setShouldReject(bool _value) public {\r\n        shouldReject = _value;\r\n    }\r\n\r\n    function onERC1155Received(address _operator, address _from, uint256 _id, uint256 _value, bytes calldata _data) external returns(bytes4) {\r\n        lastOperator = _operator;\r\n        lastFrom = _from;\r\n        lastId = _id;\r\n        lastValue = _value;\r\n        lastData = _data;\r\n        if (shouldReject == true) {\r\n            revert(\"onERC1155Received: transfer not accepted\");\r\n        } else {\r\n            return ERC1155_ACCEPTED;\r\n        }\r\n    }\r\n\r\n    function onERC1155BatchReceived(address _operator, address _from, uint256[] calldata _ids, uint256[] calldata _values, bytes calldata _data) external returns(bytes4) {\r\n        lastOperator = _operator;\r\n        lastFrom = _from;\r\n        lastId = _ids[0];\r\n        lastValue = _values[0];\r\n        lastData = _data;\r\n        if (shouldReject == true) {\r\n            revert(\"onERC1155BatchReceived: transfer not accepted\");\r\n        } else {\r\n            return ERC1155_BATCH_ACCEPTED;\r\n        }\r\n    }\r\n\r\n    // ERC165 interface support\r\n    function supportsInterface(bytes4 interfaceID) external view returns (bool) {\r\n        return  interfaceID == 0x01ffc9a7 ||    // ERC165\r\n                interfaceID == 0x4e2312e0;      // ERC1155_ACCEPTED ^ ERC1155_BATCH_ACCEPTED;\r\n    }\r\n}\r\n",
  "sourcePath": "C:/Users/paulg/Documents/polats/arcade/contracts/ERC1155MockReceiver.sol",
  "compiler": {
    "name": "solc",
    "version": "0.5.2+commit.1df8f40c.Emscripten.clang"
  },
  "schemaVersion": "3.0.11",
  "updatedAt": "2019-06-22T03:29:57.409Z",
  "devdoc": {
    "methods": {}
  },
  "userdoc": {
    "methods": {}
  }
}