{
  "contractName": "ERC1155MixedFungibleMintable",
  "abi": [
    {
      "constant": true,
      "inputs": [
        {
          "name": "_owner",
          "type": "address"
        },
        {
          "name": "_id",
          "type": "uint256"
        }
      ],
      "name": "balanceOf",
      "outputs": [
        {
          "name": "",
          "type": "uint256"
        }
      ],
      "payable": false,
      "stateMutability": "view",
      "type": "function"
    },
    {
      "constant": true,
      "inputs": [
        {
          "name": "_interfaceId",
          "type": "bytes4"
        }
      ],
      "name": "supportsInterface",
      "outputs": [
        {
          "name": "",
          "type": "bool"
        }
      ],
      "payable": false,
      "stateMutability": "view",
      "type": "function"
    },
    {
      "constant": true,
      "inputs": [
        {
          "name": "",
          "type": "uint256"
        }
      ],
      "name": "maxIndex",
      "outputs": [
        {
          "name": "",
          "type": "uint256"
        }
      ],
      "payable": false,
      "stateMutability": "view",
      "type": "function"
    },
    {
      "constant": false,
      "inputs": [
        {
          "name": "_from",
          "type": "address"
        },
        {
          "name": "_to",
          "type": "address"
        },
        {
          "name": "_ids",
          "type": "uint256[]"
        },
        {
          "name": "_values",
          "type": "uint256[]"
        },
        {
          "name": "_data",
          "type": "bytes"
        }
      ],
      "name": "safeBatchTransferFrom",
      "outputs": [],
      "payable": false,
      "stateMutability": "nonpayable",
      "type": "function"
    },
    {
      "constant": true,
      "inputs": [
        {
          "name": "_owners",
          "type": "address[]"
        },
        {
          "name": "_ids",
          "type": "uint256[]"
        }
      ],
      "name": "balanceOfBatch",
      "outputs": [
        {
          "name": "",
          "type": "uint256[]"
        }
      ],
      "payable": false,
      "stateMutability": "view",
      "type": "function"
    },
    {
      "constant": true,
      "inputs": [
        {
          "name": "_id",
          "type": "uint256"
        }
      ],
      "name": "isNonFungibleItem",
      "outputs": [
        {
          "name": "",
          "type": "bool"
        }
      ],
      "payable": false,
      "stateMutability": "pure",
      "type": "function"
    },
    {
      "constant": true,
      "inputs": [
        {
          "name": "_id",
          "type": "uint256"
        }
      ],
      "name": "ownerOf",
      "outputs": [
        {
          "name": "",
          "type": "address"
        }
      ],
      "payable": false,
      "stateMutability": "view",
      "type": "function"
    },
    {
      "constant": true,
      "inputs": [
        {
          "name": "_id",
          "type": "uint256"
        }
      ],
      "name": "getNonFungibleBaseType",
      "outputs": [
        {
          "name": "",
          "type": "uint256"
        }
      ],
      "payable": false,
      "stateMutability": "pure",
      "type": "function"
    },
    {
      "constant": true,
      "inputs": [
        {
          "name": "_id",
          "type": "uint256"
        }
      ],
      "name": "isNonFungibleBaseType",
      "outputs": [
        {
          "name": "",
          "type": "bool"
        }
      ],
      "payable": false,
      "stateMutability": "pure",
      "type": "function"
    },
    {
      "constant": true,
      "inputs": [
        {
          "name": "_id",
          "type": "uint256"
        }
      ],
      "name": "getNonFungibleIndex",
      "outputs": [
        {
          "name": "",
          "type": "uint256"
        }
      ],
      "payable": false,
      "stateMutability": "pure",
      "type": "function"
    },
    {
      "constant": false,
      "inputs": [
        {
          "name": "_operator",
          "type": "address"
        },
        {
          "name": "_approved",
          "type": "bool"
        }
      ],
      "name": "setApprovalForAll",
      "outputs": [],
      "payable": false,
      "stateMutability": "nonpayable",
      "type": "function"
    },
    {
      "constant": true,
      "inputs": [
        {
          "name": "_id",
          "type": "uint256"
        }
      ],
      "name": "isFungible",
      "outputs": [
        {
          "name": "",
          "type": "bool"
        }
      ],
      "payable": false,
      "stateMutability": "pure",
      "type": "function"
    },
    {
      "constant": true,
      "inputs": [
        {
          "name": "",
          "type": "uint256"
        }
      ],
      "name": "creators",
      "outputs": [
        {
          "name": "",
          "type": "address"
        }
      ],
      "payable": false,
      "stateMutability": "view",
      "type": "function"
    },
    {
      "constant": true,
      "inputs": [
        {
          "name": "_id",
          "type": "uint256"
        }
      ],
      "name": "isNonFungible",
      "outputs": [
        {
          "name": "",
          "type": "bool"
        }
      ],
      "payable": false,
      "stateMutability": "pure",
      "type": "function"
    },
    {
      "constant": true,
      "inputs": [
        {
          "name": "_owner",
          "type": "address"
        },
        {
          "name": "_operator",
          "type": "address"
        }
      ],
      "name": "isApprovedForAll",
      "outputs": [
        {
          "name": "",
          "type": "bool"
        }
      ],
      "payable": false,
      "stateMutability": "view",
      "type": "function"
    },
    {
      "constant": false,
      "inputs": [
        {
          "name": "_from",
          "type": "address"
        },
        {
          "name": "_to",
          "type": "address"
        },
        {
          "name": "_id",
          "type": "uint256"
        },
        {
          "name": "_value",
          "type": "uint256"
        },
        {
          "name": "_data",
          "type": "bytes"
        }
      ],
      "name": "safeTransferFrom",
      "outputs": [],
      "payable": false,
      "stateMutability": "nonpayable",
      "type": "function"
    },
    {
      "anonymous": false,
      "inputs": [
        {
          "indexed": true,
          "name": "_operator",
          "type": "address"
        },
        {
          "indexed": true,
          "name": "_from",
          "type": "address"
        },
        {
          "indexed": true,
          "name": "_to",
          "type": "address"
        },
        {
          "indexed": false,
          "name": "_id",
          "type": "uint256"
        },
        {
          "indexed": false,
          "name": "_value",
          "type": "uint256"
        }
      ],
      "name": "TransferSingle",
      "type": "event"
    },
    {
      "anonymous": false,
      "inputs": [
        {
          "indexed": true,
          "name": "_operator",
          "type": "address"
        },
        {
          "indexed": true,
          "name": "_from",
          "type": "address"
        },
        {
          "indexed": true,
          "name": "_to",
          "type": "address"
        },
        {
          "indexed": false,
          "name": "_ids",
          "type": "uint256[]"
        },
        {
          "indexed": false,
          "name": "_values",
          "type": "uint256[]"
        }
      ],
      "name": "TransferBatch",
      "type": "event"
    },
    {
      "anonymous": false,
      "inputs": [
        {
          "indexed": true,
          "name": "_owner",
          "type": "address"
        },
        {
          "indexed": true,
          "name": "_operator",
          "type": "address"
        },
        {
          "indexed": false,
          "name": "_approved",
          "type": "bool"
        }
      ],
      "name": "ApprovalForAll",
      "type": "event"
    },
    {
      "anonymous": false,
      "inputs": [
        {
          "indexed": false,
          "name": "_value",
          "type": "string"
        },
        {
          "indexed": true,
          "name": "_id",
          "type": "uint256"
        }
      ],
      "name": "URI",
      "type": "event"
    },
    {
      "constant": false,
      "inputs": [
        {
          "name": "_uri",
          "type": "string"
        },
        {
          "name": "_isNF",
          "type": "bool"
        }
      ],
      "name": "create",
      "outputs": [
        {
          "name": "_type",
          "type": "uint256"
        }
      ],
      "payable": false,
      "stateMutability": "nonpayable",
      "type": "function"
    },
    {
      "constant": false,
      "inputs": [
        {
          "name": "_type",
          "type": "uint256"
        },
        {
          "name": "_to",
          "type": "address[]"
        }
      ],
      "name": "mintNonFungible",
      "outputs": [],
      "payable": false,
      "stateMutability": "nonpayable",
      "type": "function"
    },
    {
      "constant": false,
      "inputs": [
        {
          "name": "_id",
          "type": "uint256"
        },
        {
          "name": "_to",
          "type": "address[]"
        },
        {
          "name": "_quantities",
          "type": "uint256[]"
        }
      ],
      "name": "mintFungible",
      "outputs": [],
      "payable": false,
      "stateMutability": "nonpayable",
      "type": "function"
    }
  ],
  "bytecode": "0x608060405234801561001057600080fd5b50612aae806100206000396000f3fe608060405234801561001057600080fd5b506004361061013d576000357c01000000000000000000000000000000000000000000000000000000009004806378b27221116100ca578063cd53d08e1161008e578063cd53d08e14610856578063e44591f0146108c4578063e985e9c51461090a578063f242432a14610986578063f941908814610a535761013d565b806378b272211461060d5780639cca1c64146106e5578063a22cb46514610727578063adebf6f214610777578063cc10e401146107bd5761013d565b80634e1273f4116101115780634e1273f4146103ae5780635e81b958146104d15780636352211e146105175780636f969c2d146105855780637269a327146105c75761013d565b8062fdd58e1461014257806301ffc9a7146101a457806308d7d469146102095780632eb2c2d61461024b575b600080fd5b61018e6004803603604081101561015857600080fd5b81019080803573ffffffffffffffffffffffffffffffffffffffff16906020019092919080359060200190929190505050610ad6565b6040518082815260200191505060405180910390f35b6101ef600480360360208110156101ba57600080fd5b8101908080357bffffffffffffffffffffffffffffffffffffffffffffffffffffffff19169060200190929190505050610bb9565b604051808215151515815260200191505060405180910390f35b6102356004803603602081101561021f57600080fd5b8101908080359060200190929190505050610ca2565b6040518082815260200191505060405180910390f35b6103ac600480360360a081101561026157600080fd5b81019080803573ffffffffffffffffffffffffffffffffffffffff169060200190929190803573ffffffffffffffffffffffffffffffffffffffff169060200190929190803590602001906401000000008111156102be57600080fd5b8201836020820111156102d057600080fd5b803590602001918460208302840111640100000000831117156102f257600080fd5b90919293919293908035906020019064010000000081111561031357600080fd5b82018360208201111561032557600080fd5b8035906020019184602083028401116401000000008311171561034757600080fd5b90919293919293908035906020019064010000000081111561036857600080fd5b82018360208201111561037a57600080fd5b8035906020019184600183028401116401000000008311171561039c57600080fd5b9091929391929390505050610cba565b005b61047a600480360360408110156103c457600080fd5b81019080803590602001906401000000008111156103e157600080fd5b8201836020820111156103f357600080fd5b8035906020019184602083028401116401000000008311171561041557600080fd5b90919293919293908035906020019064010000000081111561043657600080fd5b82018360208201111561044857600080fd5b8035906020019184602083028401116401000000008311171561046a57600080fd5b909192939192939050505061136d565b6040518080602001828103825283818151815260200191508051906020019060200280838360005b838110156104bd5780820151818401526020810190506104a2565b505050509050019250505060405180910390f35b6104fd600480360360208110156104e757600080fd5b8101908080359060200190929190505050611560565b604051808215151515815260200191505060405180910390f35b6105436004803603602081101561052d57600080fd5b81019080803590602001909291905050506115cf565b604051808273ffffffffffffffffffffffffffffffffffffffff1673ffffffffffffffffffffffffffffffffffffffff16815260200191505060405180910390f35b6105b16004803603602081101561059b57600080fd5b810190808035906020019092919050505061160c565b6040518082815260200191505060405180910390f35b6105f3600480360360208110156105dd57600080fd5b8101908080359060200190929190505050611651565b604051808215151515815260200191505060405180910390f35b6106e36004803603606081101561062357600080fd5b81019080803590602001909291908035906020019064010000000081111561064a57600080fd5b82018360208201111561065c57600080fd5b8035906020019184602083028401116401000000008311171561067e57600080fd5b90919293919293908035906020019064010000000081111561069f57600080fd5b8201836020820111156106b157600080fd5b803590602001918460208302840111640100000000831117156106d357600080fd5b90919293919293905050506116bf565b005b610711600480360360208110156106fb57600080fd5b810190808035906020019092919050505061192d565b6040518082815260200191505060405180910390f35b6107756004803603604081101561073d57600080fd5b81019080803573ffffffffffffffffffffffffffffffffffffffff16906020019092919080351515906020019092919050505061196b565b005b6107a36004803603602081101561078d57600080fd5b8101908080359060200190929190505050611a6c565b604051808215151515815260200191505060405180910390f35b610840600480360360408110156107d357600080fd5b81019080803590602001906401000000008111156107f057600080fd5b82018360208201111561080257600080fd5b8035906020019184600183028401116401000000008311171561082457600080fd5b9091929391929390803515159060200190929190505050611a9a565b6040518082815260200191505060405180910390f35b6108826004803603602081101561086c57600080fd5b8101908080359060200190929190505050611c31565b604051808273ffffffffffffffffffffffffffffffffffffffff1673ffffffffffffffffffffffffffffffffffffffff16815260200191505060405180910390f35b6108f0600480360360208110156108da57600080fd5b8101908080359060200190929190505050611c64565b604051808215151515815260200191505060405180910390f35b61096c6004803603604081101561092057600080fd5b81019080803573ffffffffffffffffffffffffffffffffffffffff169060200190929190803573ffffffffffffffffffffffffffffffffffffffff169060200190929190505050611c92565b604051808215151515815260200191505060405180910390f35b610a51600480360360a081101561099c57600080fd5b81019080803573ffffffffffffffffffffffffffffffffffffffff169060200190929190803573ffffffffffffffffffffffffffffffffffffffff169060200190929190803590602001909291908035906020019092919080359060200190640100000000811115610a0d57600080fd5b820183602082011115610a1f57600080fd5b80359060200191846001830284011164010000000083111715610a4157600080fd5b9091929391929390505050611d26565b005b610ad460048036036040811015610a6957600080fd5b810190808035906020019092919080359060200190640100000000811115610a9057600080fd5b820183602082011115610aa257600080fd5b80359060200191846020830284011164010000000083111715610ac457600080fd5b9091929391929390505050612229565b005b6000610ae182611560565b15610b60578273ffffffffffffffffffffffffffffffffffffffff166002600084815260200190815260200160002060009054906101000a900473ffffffffffffffffffffffffffffffffffffffff1673ffffffffffffffffffffffffffffffffffffffff1614610b53576000610b56565b60015b60ff169050610bb3565b60008083815260200190815260200160002060008473ffffffffffffffffffffffffffffffffffffffff1673ffffffffffffffffffffffffffffffffffffffff1681526020019081526020016000205490505b92915050565b60006301ffc9a77c0100000000000000000000000000000000000000000000000000000000027bffffffffffffffffffffffffffffffffffffffffffffffffffffffff1916827bffffffffffffffffffffffffffffffffffffffffffffffffffffffff19161480610c8a575063d9b67a267c0100000000000000000000000000000000000000000000000000000000027bffffffffffffffffffffffffffffffffffffffffffffffffffffffff1916827bffffffffffffffffffffffffffffffffffffffffffffffffffffffff1916145b15610c985760019050610c9d565b600090505b919050565b60056020528060005260406000206000915090505481565b600073ffffffffffffffffffffffffffffffffffffffff168773ffffffffffffffffffffffffffffffffffffffff1614151515610d5f576040517f08c379a000000000000000000000000000000000000000000000000000000000815260040180806020018281038252601b8152602001807f63616e6e6f742073656e6420746f207a65726f2061646472657373000000000081525060200191505060405180910390fd5b8383905086869050141515610ddc576040517f08c379a00000000000000000000000000000000000000000000000000000000081526004018080602001828103825260178152602001807f4172726179206c656e677468206d757374206d6174636800000000000000000081525060200191505060405180910390fd5b3373ffffffffffffffffffffffffffffffffffffffff168873ffffffffffffffffffffffffffffffffffffffff161480610ea3575060011515600160008a73ffffffffffffffffffffffffffffffffffffffff1673ffffffffffffffffffffffffffffffffffffffff16815260200190815260200160002060003373ffffffffffffffffffffffffffffffffffffffff1673ffffffffffffffffffffffffffffffffffffffff16815260200190815260200160002060009054906101000a900460ff161515145b1515610efa576040517f08c379a000000000000000000000000000000000000000000000000000000000815260040180806020018281038252602f8152602001806129dd602f913960400191505060405180910390fd5b60008090505b868690508110156111875760008787838181101515610f1b57fe5b90506020020135905060008686848181101515610f3457fe5b905060200201359050610f4682611c64565b1561100f578a73ffffffffffffffffffffffffffffffffffffffff166002600084815260200190815260200160002060009054906101000a900473ffffffffffffffffffffffffffffffffffffffff1673ffffffffffffffffffffffffffffffffffffffff16141515610fb857600080fd5b896002600084815260200190815260200160002060006101000a81548173ffffffffffffffffffffffffffffffffffffffff021916908373ffffffffffffffffffffffffffffffffffffffff16021790555061117a565b6110718160008085815260200190815260200160002060008e73ffffffffffffffffffffffffffffffffffffffff1673ffffffffffffffffffffffffffffffffffffffff1681526020019081526020016000205461248090919063ffffffff16565b60008084815260200190815260200160002060008d73ffffffffffffffffffffffffffffffffffffffff1673ffffffffffffffffffffffffffffffffffffffff1681526020019081526020016000208190555061112660008084815260200190815260200160002060008c73ffffffffffffffffffffffffffffffffffffffff1673ffffffffffffffffffffffffffffffffffffffff168152602001908152602001600020548261249990919063ffffffff16565b60008084815260200190815260200160002060008c73ffffffffffffffffffffffffffffffffffffffff1673ffffffffffffffffffffffffffffffffffffffff168152602001908152602001600020819055505b5050806001019050610f00565b508673ffffffffffffffffffffffffffffffffffffffff168873ffffffffffffffffffffffffffffffffffffffff163373ffffffffffffffffffffffffffffffffffffffff167f4a39dc06d4c0dbc64b70af90fd698a233a518aa5d07e595d983b8c0526c8f7fb898989896040518080602001806020018381038352878782818152602001925060200280828437600081840152601f19601f8201169050808301925050508381038252858582818152602001925060200280828437600081840152601f19601f820116905080830192505050965050505050505060405180910390a46112898773ffffffffffffffffffffffffffffffffffffffff166124b5565b1561136357611362338989898980806020026020016040519081016040528093929190818152602001838360200280828437600081840152601f19601f82011690508083019250505050505050888880806020026020016040519081016040528093929190818152602001838360200280828437600081840152601f19601f8201169050808301925050505050505087878080601f016020809104026020016040519081016040528093929190818152602001838380828437600081840152601f19601f820116905080830192505050505050506124c8565b5b5050505050505050565b6060828290508585905014151561138357600080fd5b6060858590506040519080825280602002602001820160405280156113b75781602001602082028038833980820191505090505b50905060008090505b8686905081101561155357600085858381811015156113db57fe5b9050602002013590506113ed81611560565b156114b057878783818110151561140057fe5b9050602002013573ffffffffffffffffffffffffffffffffffffffff1673ffffffffffffffffffffffffffffffffffffffff166002600083815260200190815260200160002060009054906101000a900473ffffffffffffffffffffffffffffffffffffffff1673ffffffffffffffffffffffffffffffffffffffff161461148957600061148c565b60015b60ff16838381518110151561149d57fe5b9060200190602002018181525050611547565b600080828152602001908152602001600020600089898581811015156114d257fe5b9050602002013573ffffffffffffffffffffffffffffffffffffffff1673ffffffffffffffffffffffffffffffffffffffff1673ffffffffffffffffffffffffffffffffffffffff16815260200190815260200160002054838381518110151561153857fe5b90602001906020020181815250505b508060010190506113c0565b5080915050949350505050565b60007f80000000000000000000000000000000000000000000000000000000000000008083161480156115c8575060007fffffffffffffffffffffffffffffffffffffffffffffffffffffffffffffffff6fffffffffffffffffffffffffffffffff16831614155b9050919050565b60006002600083815260200190815260200160002060009054906101000a900473ffffffffffffffffffffffffffffffffffffffff169050919050565b600060807fffffffffffffffffffffffffffffffffffffffffffffffffffffffffffffffff6fffffffffffffffffffffffffffffffff169060020a0282169050919050565b60007f80000000000000000000000000000000000000000000000000000000000000008083161480156116b8575060007fffffffffffffffffffffffffffffffffffffffffffffffffffffffffffffffff6fffffffffffffffffffffffffffffffff168316145b9050919050565b843373ffffffffffffffffffffffffffffffffffffffff166004600083815260200190815260200160002060009054906101000a900473ffffffffffffffffffffffffffffffffffffffff1673ffffffffffffffffffffffffffffffffffffffff1614151561172d57600080fd5b61173686611a6c565b151561174157600080fd5b60008090505b85859050811015611924576000868683818110151561176257fe5b9050602002013573ffffffffffffffffffffffffffffffffffffffff1690506000858584818110151561179157fe5b9050602002013590506117fc6000808b815260200190815260200160002060008473ffffffffffffffffffffffffffffffffffffffff1673ffffffffffffffffffffffffffffffffffffffff168152602001908152602001600020548261249990919063ffffffff16565b6000808b815260200190815260200160002060008473ffffffffffffffffffffffffffffffffffffffff1673ffffffffffffffffffffffffffffffffffffffff168152602001908152602001600020819055508173ffffffffffffffffffffffffffffffffffffffff16600073ffffffffffffffffffffffffffffffffffffffff163373ffffffffffffffffffffffffffffffffffffffff167fc3d58168c5ae7397731d063d5bbf3d657854427343f4c083240f7aacaa2d0f628c85604051808381526020018281526020019250505060405180910390a46118f38273ffffffffffffffffffffffffffffffffffffffff166124b5565b15611917576119163333848c856020604051908101604052806000815250612793565b5b5050806001019050611747565b50505050505050565b60007fffffffffffffffffffffffffffffffffffffffffffffffffffffffffffffffff6fffffffffffffffffffffffffffffffff1682169050919050565b80600160003373ffffffffffffffffffffffffffffffffffffffff1673ffffffffffffffffffffffffffffffffffffffff16815260200190815260200160002060008473ffffffffffffffffffffffffffffffffffffffff1673ffffffffffffffffffffffffffffffffffffffff16815260200190815260200160002060006101000a81548160ff0219169083151502179055508173ffffffffffffffffffffffffffffffffffffffff163373ffffffffffffffffffffffffffffffffffffffff167f17307eab39ab6107e8899845ad3d59bd9653f200f220920489ca2b5937696c3183604051808215151515815260200191505060405180910390a35050565b6000807f80000000000000000000000000000000000000000000000000000000000000008316149050919050565b600060806003600081546001019190508190559060020a0290508115611ae0577f8000000000000000000000000000000000000000000000000000000000000000811790505b336004600083815260200190815260200160002060006101000a81548173ffffffffffffffffffffffffffffffffffffffff021916908373ffffffffffffffffffffffffffffffffffffffff160217905550600073ffffffffffffffffffffffffffffffffffffffff16600073ffffffffffffffffffffffffffffffffffffffff163373ffffffffffffffffffffffffffffffffffffffff167fc3d58168c5ae7397731d063d5bbf3d657854427343f4c083240f7aacaa2d0f62846000604051808381526020018281526020019250505060405180910390a46000848490501115611c2a57807f6bb7ff708619ba0610cba295a58592e0451dee2622938c8755667688daf3529b858560405180806020018281038252848482818152602001925080828437600081840152601f19601f820116905080830192505050935050505060405180910390a25b9392505050565b60046020528060005260406000206000915054906101000a900473ffffffffffffffffffffffffffffffffffffffff1681565b60007f8000000000000000000000000000000000000000000000000000000000000000808316149050919050565b6000600160008473ffffffffffffffffffffffffffffffffffffffff1673ffffffffffffffffffffffffffffffffffffffff16815260200190815260200160002060008373ffffffffffffffffffffffffffffffffffffffff1673ffffffffffffffffffffffffffffffffffffffff16815260200190815260200160002060009054906101000a900460ff16905092915050565b600073ffffffffffffffffffffffffffffffffffffffff168573ffffffffffffffffffffffffffffffffffffffff1614151515611dcb576040517f08c379a000000000000000000000000000000000000000000000000000000000815260040180806020018281038252601b8152602001807f63616e6e6f742073656e6420746f207a65726f2061646472657373000000000081525060200191505060405180910390fd5b3373ffffffffffffffffffffffffffffffffffffffff168673ffffffffffffffffffffffffffffffffffffffff161480611e92575060011515600160008873ffffffffffffffffffffffffffffffffffffffff1673ffffffffffffffffffffffffffffffffffffffff16815260200190815260200160002060003373ffffffffffffffffffffffffffffffffffffffff1673ffffffffffffffffffffffffffffffffffffffff16815260200190815260200160002060009054906101000a900460ff161515145b1515611ee9576040517f08c379a000000000000000000000000000000000000000000000000000000000815260040180806020018281038252602f8152602001806129dd602f913960400191505060405180910390fd5b611ef284611c64565b15611fbb578573ffffffffffffffffffffffffffffffffffffffff166002600086815260200190815260200160002060009054906101000a900473ffffffffffffffffffffffffffffffffffffffff1673ffffffffffffffffffffffffffffffffffffffff16141515611f6457600080fd5b846002600086815260200190815260200160002060006101000a81548173ffffffffffffffffffffffffffffffffffffffff021916908373ffffffffffffffffffffffffffffffffffffffff160217905550612126565b61201d8360008087815260200190815260200160002060008973ffffffffffffffffffffffffffffffffffffffff1673ffffffffffffffffffffffffffffffffffffffff1681526020019081526020016000205461248090919063ffffffff16565b60008086815260200190815260200160002060008873ffffffffffffffffffffffffffffffffffffffff1673ffffffffffffffffffffffffffffffffffffffff168152602001908152602001600020819055506120d28360008087815260200190815260200160002060008873ffffffffffffffffffffffffffffffffffffffff1673ffffffffffffffffffffffffffffffffffffffff1681526020019081526020016000205461249990919063ffffffff16565b60008086815260200190815260200160002060008773ffffffffffffffffffffffffffffffffffffffff1673ffffffffffffffffffffffffffffffffffffffff168152602001908152602001600020819055505b8473ffffffffffffffffffffffffffffffffffffffff168673ffffffffffffffffffffffffffffffffffffffff163373ffffffffffffffffffffffffffffffffffffffff167fc3d58168c5ae7397731d063d5bbf3d657854427343f4c083240f7aacaa2d0f628787604051808381526020018281526020019250505060405180910390a46121c98573ffffffffffffffffffffffffffffffffffffffff166124b5565b1561222157612220338787878787878080601f016020809104026020016040519081016040528093929190818152602001838380828437600081840152601f19601f82011690508083019250505050505050612793565b5b505050505050565b823373ffffffffffffffffffffffffffffffffffffffff166004600083815260200190815260200160002060009054906101000a900473ffffffffffffffffffffffffffffffffffffffff1673ffffffffffffffffffffffffffffffffffffffff1614151561229757600080fd5b6122a084611c64565b15156122ab57600080fd5b6000600160056000878152602001908152602001600020540190506122ef60056000878152602001908152602001600020548585905061249990919063ffffffff16565b600560008781526020019081526020016000208190555060008090505b84849050811015612478576000858583818110151561232757fe5b9050602002013573ffffffffffffffffffffffffffffffffffffffff169050600082840188179050816002600083815260200190815260200160002060006101000a81548173ffffffffffffffffffffffffffffffffffffffff021916908373ffffffffffffffffffffffffffffffffffffffff1602179055508173ffffffffffffffffffffffffffffffffffffffff16600073ffffffffffffffffffffffffffffffffffffffff163373ffffffffffffffffffffffffffffffffffffffff167fc3d58168c5ae7397731d063d5bbf3d657854427343f4c083240f7aacaa2d0f62846001604051808381526020018281526020019250505060405180910390a46124468273ffffffffffffffffffffffffffffffffffffffff166124b5565b1561246b5761246a3333848460016020604051908101604052806000815250612793565b5b505080600101905061230c565b505050505050565b600082821115151561248e57fe5b818303905092915050565b600081830190508281101515156124ac57fe5b80905092915050565b600080823b905060008111915050919050565b63bc197c817c0100000000000000000000000000000000000000000000000000000000027bffffffffffffffffffffffffffffffffffffffffffffffffffffffff19168473ffffffffffffffffffffffffffffffffffffffff1663bc197c8188888787876040518663ffffffff167c0100000000000000000000000000000000000000000000000000000000028152600401808673ffffffffffffffffffffffffffffffffffffffff1673ffffffffffffffffffffffffffffffffffffffff1681526020018573ffffffffffffffffffffffffffffffffffffffff1673ffffffffffffffffffffffffffffffffffffffff168152602001806020018060200180602001848103845287818151815260200191508051906020019060200280838360005b838110156126065780820151818401526020810190506125eb565b50505050905001848103835286818151815260200191508051906020019060200280838360005b8381101561264857808201518184015260208101905061262d565b50505050905001848103825285818151815260200191508051906020019080838360005b8381101561268757808201518184015260208101905061266c565b50505050905090810190601f1680156126b45780820380516001836020036101000a031916815260200191505b5098505050505050505050602060405180830381600087803b1580156126d957600080fd5b505af11580156126ed573d6000803e3d6000fd5b505050506040513d602081101561270357600080fd5b81019080805190602001909291905050507bffffffffffffffffffffffffffffffffffffffffffffffffffffffff191614151561278b576040517f08c379a000000000000000000000000000000000000000000000000000000000815260040180806020018281038252603e815260200180612a0c603e913960400191505060405180910390fd5b505050505050565b63f23a6e617c0100000000000000000000000000000000000000000000000000000000027bffffffffffffffffffffffffffffffffffffffffffffffffffffffff19168473ffffffffffffffffffffffffffffffffffffffff1663f23a6e6188888787876040518663ffffffff167c0100000000000000000000000000000000000000000000000000000000028152600401808673ffffffffffffffffffffffffffffffffffffffff1673ffffffffffffffffffffffffffffffffffffffff1681526020018573ffffffffffffffffffffffffffffffffffffffff1673ffffffffffffffffffffffffffffffffffffffff16815260200184815260200183815260200180602001828103825283818151815260200191508051906020019080838360005b838110156128d25780820151818401526020810190506128b7565b50505050905090810190601f1680156128ff5780820380516001836020036101000a031916815260200191505b509650505050505050602060405180830381600087803b15801561292257600080fd5b505af1158015612936573d6000803e3d6000fd5b505050506040513d602081101561294c57600080fd5b81019080805190602001909291905050507bffffffffffffffffffffffffffffffffffffffffffffffffffffffff19161415156129d4576040517f08c379a0000000000000000000000000000000000000000000000000000000008152600401808060200182810382526039815260200180612a4a6039913960400191505060405180910390fd5b50505050505056fe4e656564206f70657261746f7220617070726f76616c20666f7220337264207061727479207472616e73666572732e636f6e74726163742072657475726e656420616e20756e6b6e6f776e2076616c75652066726f6d206f6e4552433131353542617463685265636569766564636f6e74726163742072657475726e656420616e20756e6b6e6f776e2076616c75652066726f6d206f6e455243313135355265636569766564a165627a7a7230582009cd0dad3931b501fce1299f95baf9804cff57df01f3b355c396c7a65842c4a00029",
  "source": "pragma solidity ^0.5.0;\r\n\r\nimport \"./ERC1155MixedFungible.sol\";\r\n\r\n/**\r\n    @dev Mintable form of ERC1155\r\n    Shows how easy it is to mint new items\r\n*/\r\ncontract ERC1155MixedFungibleMintable is ERC1155MixedFungible {\r\n\r\n    uint256 nonce;\r\n    mapping (uint256 => address) public creators;\r\n    mapping (uint256 => uint256) public maxIndex;\r\n\r\n    modifier creatorOnly(uint256 _id) {\r\n        require(creators[_id] == msg.sender);\r\n        _;\r\n    }\r\n\r\n    // This function only creates the type.\r\n    function create(\r\n        string calldata _uri,\r\n        bool   _isNF)\r\n    external returns(uint256 _type) {\r\n\r\n        // Store the type in the upper 128 bits\r\n        _type = (++nonce << 128);\r\n\r\n        // Set a flag if this is an NFI.\r\n        if (_isNF)\r\n          _type = _type | TYPE_NF_BIT;\r\n\r\n        // This will allow restricted access to creators.\r\n        creators[_type] = msg.sender;\r\n\r\n        // emit a Transfer event with Create semantic to help with discovery.\r\n        emit TransferSingle(msg.sender, address(0x0), address(0x0), _type, 0);\r\n\r\n        if (bytes(_uri).length > 0)\r\n            emit URI(_uri, _type);\r\n    }\r\n\r\n    function mintNonFungible(uint256 _type, address[] calldata _to) external creatorOnly(_type) {\r\n\r\n        // No need to check this is a nf type rather than an id since\r\n        // creatorOnly() will only let a type pass through.\r\n        require(isNonFungible(_type));\r\n\r\n        // Index are 1-based.\r\n        uint256 index = maxIndex[_type] + 1;\r\n        maxIndex[_type] = _to.length.add(maxIndex[_type]);\r\n\r\n        for (uint256 i = 0; i < _to.length; ++i) {\r\n            address dst = _to[i];\r\n            uint256 id  = _type | index + i;\r\n\r\n            nfOwners[id] = dst;\r\n\r\n            // You could use base-type id to store NF type balances if you wish.\r\n            // balances[_type][dst] = quantity.add(balances[_type][dst]);\r\n\r\n            emit TransferSingle(msg.sender, address(0x0), dst, id, 1);\r\n\r\n            if (dst.isContract()) {\r\n                _doSafeTransferAcceptanceCheck(msg.sender, msg.sender, dst, id, 1, '');\r\n            }\r\n        }\r\n    }\r\n\r\n    function mintFungible(uint256 _id, address[] calldata _to, uint256[] calldata _quantities) external creatorOnly(_id) {\r\n\r\n        require(isFungible(_id));\r\n\r\n        for (uint256 i = 0; i < _to.length; ++i) {\r\n\r\n            address to = _to[i];\r\n            uint256 quantity = _quantities[i];\r\n\r\n            // Grant the items to the caller\r\n            balances[_id][to] = quantity.add(balances[_id][to]);\r\n\r\n            // Emit the Transfer/Mint event.\r\n            // the 0x0 source address implies a mint\r\n            // It will also provide the circulating supply info.\r\n            emit TransferSingle(msg.sender, address(0x0), to, _id, quantity);\r\n\r\n            if (to.isContract()) {\r\n                _doSafeTransferAcceptanceCheck(msg.sender, msg.sender, to, _id, quantity, '');\r\n            }\r\n        }\r\n    }\r\n}\r\n",
  "sourcePath": "C:/Users/paulg/Documents/polats/arcade/contracts/ERC1155MixedFungibleMintable.sol",
  "compiler": {
    "name": "solc",
    "version": "0.5.2+commit.1df8f40c.Emscripten.clang"
  },
  "schemaVersion": "3.0.11",
  "updatedAt": "2019-06-22T03:29:57.398Z",
  "devdoc": {
    "details": "Mintable form of ERC1155\r Shows how easy it is to mint new items\r",
    "methods": {
      "isApprovedForAll(address,address)": {
        "params": {
          "_operator": "Address of authorized operator\r",
          "_owner": "The owner of the Tokens\r"
        },
        "return": "True if the operator is approved, false if not\r"
      },
      "setApprovalForAll(address,bool)": {
        "details": "MUST emit the ApprovalForAll event on success.\r",
        "params": {
          "_approved": "True if the operator is approved, false to revoke approval\r",
          "_operator": "Address to add to the set of authorized operators\r"
        }
      }
    }
  },
  "userdoc": {
    "methods": {
      "isApprovedForAll(address,address)": {
        "notice": "Queries the approval status of an operator for a given owner.\r"
      },
      "setApprovalForAll(address,bool)": {
        "notice": "Enable or disable approval for a third party (\"operator\") to manage all of the caller's tokens.\r"
      }
    }
  }
}