{
  "contractName": "ERC1155ReceiverDelegate",
  "abi": [
    {
      "constant": true,
      "inputs": [],
      "name": "shouldReject",
      "outputs": [
        {
          "name": "",
          "type": "bool"
        }
      ],
      "payable": false,
      "stateMutability": "view",
      "type": "function"
    },
    {
      "constant": true,
      "inputs": [
        {
          "name": "",
          "type": "bytes4"
        }
      ],
      "name": "delegates",
      "outputs": [
        {
          "name": "",
          "type": "address"
        }
      ],
      "payable": false,
      "stateMutability": "view",
      "type": "function"
    },
    {
      "constant": false,
      "inputs": [
        {
          "name": "_value",
          "type": "bool"
        }
      ],
      "name": "setShouldReject",
      "outputs": [],
      "payable": false,
      "stateMutability": "nonpayable",
      "type": "function"
    },
    {
      "constant": false,
      "inputs": [
        {
          "name": "_operator",
          "type": "address"
        },
        {
          "name": "_from",
          "type": "address"
        },
        {
          "name": "_id",
          "type": "uint256"
        },
        {
          "name": "_value",
          "type": "uint256"
        },
        {
          "name": "_data",
          "type": "bytes"
        }
      ],
      "name": "onERC1155Received",
      "outputs": [
        {
          "name": "",
          "type": "bytes4"
        }
      ],
      "payable": false,
      "stateMutability": "nonpayable",
      "type": "function"
    },
    {
      "constant": false,
      "inputs": [
        {
          "name": "_operator",
          "type": "address"
        },
        {
          "name": "_from",
          "type": "address"
        },
        {
          "name": "_ids",
          "type": "uint256[]"
        },
        {
          "name": "_values",
          "type": "uint256[]"
        },
        {
          "name": "_data",
          "type": "bytes"
        }
      ],
      "name": "onERC1155BatchReceived",
      "outputs": [
        {
          "name": "",
          "type": "bytes4"
        }
      ],
      "payable": false,
      "stateMutability": "nonpayable",
      "type": "function"
    },
    {
      "constant": true,
      "inputs": [
        {
          "name": "interfaceID",
          "type": "bytes4"
        }
      ],
      "name": "supportsInterface",
      "outputs": [
        {
          "name": "",
          "type": "bool"
        }
      ],
      "payable": false,
      "stateMutability": "view",
      "type": "function"
    }
  ],
  "bytecode": "0x608060405234801561001057600080fd5b506109af806100206000396000f3fe608060405234801561001057600080fd5b506004361061007f576000357c01000000000000000000000000000000000000000000000000000000009004806301ffc9a7146100845780631dbb9381146100e9578063a0a2daf01461010b578063a175b63814610198578063bc197c81146101c8578063f23a6e611461037d575b600080fd5b6100cf6004803603602081101561009a57600080fd5b8101908080357bffffffffffffffffffffffffffffffffffffffffffffffffffffffff1916906020019092919050505061049c565b604051808215151515815260200191505060405180910390f35b6100f1610536565b604051808215151515815260200191505060405180910390f35b6101566004803603602081101561012157600080fd5b8101908080357bffffffffffffffffffffffffffffffffffffffffffffffffffffffff19169060200190929190505050610549565b604051808273ffffffffffffffffffffffffffffffffffffffff1673ffffffffffffffffffffffffffffffffffffffff16815260200191505060405180910390f35b6101c6600480360360208110156101ae57600080fd5b8101908080351515906020019092919050505061057c565b005b610329600480360360a08110156101de57600080fd5b81019080803573ffffffffffffffffffffffffffffffffffffffff169060200190929190803573ffffffffffffffffffffffffffffffffffffffff1690602001909291908035906020019064010000000081111561023b57600080fd5b82018360208201111561024d57600080fd5b8035906020019184602083028401116401000000008311171561026f57600080fd5b90919293919293908035906020019064010000000081111561029057600080fd5b8201836020820111156102a257600080fd5b803590602001918460208302840111640100000000831117156102c457600080fd5b9091929391929390803590602001906401000000008111156102e557600080fd5b8201836020820111156102f757600080fd5b8035906020019184600183028401116401000000008311171561031957600080fd5b909192939192939050505061065e565b60405180827bffffffffffffffffffffffffffffffffffffffffffffffffffffffff19167bffffffffffffffffffffffffffffffffffffffffffffffffffffffff1916815260200191505060405180910390f35b610448600480360360a081101561039357600080fd5b81019080803573ffffffffffffffffffffffffffffffffffffffff169060200190929190803573ffffffffffffffffffffffffffffffffffffffff16906020019092919080359060200190929190803590602001909291908035906020019064010000000081111561040457600080fd5b82018360208201111561041657600080fd5b8035906020019184600183028401116401000000008311171561043857600080fd5b90919293919293905050506107a7565b60405180827bffffffffffffffffffffffffffffffffffffffffffffffffffffffff19167bffffffffffffffffffffffffffffffffffffffffffffffffffffffff1916815260200191505060405180910390f35b60006301ffc9a77c010000000000000000000000000000000000000000000000000000000002827bffffffffffffffffffffffffffffffffffffffffffffffffffffffff1916148061052f5750634e2312e07c010000000000000000000000000000000000000000000000000000000002827bffffffffffffffffffffffffffffffffffffffffffffffffffffffff1916145b9050919050565b600360149054906101000a900460ff1681565b60006020528060005260406000206000915054906101000a900473ffffffffffffffffffffffffffffffffffffffff1681565b600360009054906101000a900473ffffffffffffffffffffffffffffffffffffffff1673ffffffffffffffffffffffffffffffffffffffff163073ffffffffffffffffffffffffffffffffffffffff16141515610641576040517f08c379a000000000000000000000000000000000000000000000000000000000815260040180806020018281038252601c8152602001807f4469726563742063616c6c3a2073657453686f756c6452656a6563740000000081525060200191505060405180910390fd5b80600360146101000a81548160ff02191690831515021790555050565b6000600360009054906101000a900473ffffffffffffffffffffffffffffffffffffffff1673ffffffffffffffffffffffffffffffffffffffff163073ffffffffffffffffffffffffffffffffffffffff16141515610708576040517f08c379a00000000000000000000000000000000000000000000000000000000081526004018080602001828103825260238152602001806109616023913960400191505060405180910390fd5b60011515600360149054906101000a900460ff1615151415610775576040517f08c379a000000000000000000000000000000000000000000000000000000000815260040180806020018281038252602d81526020018061090c602d913960400191505060405180910390fd5b63bc197c817c010000000000000000000000000000000000000000000000000000000002905098975050505050505050565b6000600360009054906101000a900473ffffffffffffffffffffffffffffffffffffffff1673ffffffffffffffffffffffffffffffffffffffff163073ffffffffffffffffffffffffffffffffffffffff1614151561086e576040517f08c379a000000000000000000000000000000000000000000000000000000000815260040180806020018281038252601e8152602001807f4469726563742063616c6c3a206f6e455243313135355265636569766564000081525060200191505060405180910390fd5b60011515600360149054906101000a900460ff16151514156108db576040517f08c379a00000000000000000000000000000000000000000000000000000000081526004018080602001828103825260288152602001806109396028913960400191505060405180910390fd5b63f23a6e617c0100000000000000000000000000000000000000000000000000000000029050969550505050505056fe6f6e45524331313535426174636852656365697665643a207472616e73666572206e6f742061636365707465646f6e4552433131353552656365697665643a207472616e73666572206e6f742061636365707465644469726563742063616c6c3a206f6e4552433131353542617463685265636569766564a165627a7a72305820715cdbebe700cfecf49599872abe87c9066cc4b22f7d084e9ef946cba6aa902b0029",
  "source": "pragma solidity ^0.5.0;\r\n\r\nimport \"./DelegatesStorage.sol\";\r\nimport \"../../Common.sol\";\r\nimport \"../../IERC1155TokenReceiver.sol\";\r\n\r\n///////////////////////////////////////////////////////////////////////////////////////////////////\r\n/**\r\n * @title ERC1155ReceiverDelegate\r\n * @dev Contract to test safe transfer behavior via proxy and delegate.\r\n */\r\n///////////////////////////////////////////////////////////////////////////////////////////////////\r\n\r\ncontract ERC1155ReceiverDelegate is ProxyReceiverStorage_001_ERC1155MockReceiver, ERC1155TokenReceiver, CommonConstants {\r\n\r\n    function setShouldReject(bool _value) external {\r\n        require(address(this) == proxy, \"Direct call: setShouldReject\");\r\n\r\n        shouldReject = _value;\r\n    }\r\n\r\n    function onERC1155Received(address _operator, address _from, uint256 _id, uint256 _value, bytes calldata _data) external returns(bytes4) {\r\n        (_operator); (_from); (_id); (_value); (_data);  // solidity, be quiet please\r\n\r\n        require(address(this) == proxy, \"Direct call: onERC1155Received\");\r\n\r\n        if (shouldReject == true) {\r\n            revert(\"onERC1155Received: transfer not accepted\");\r\n        } else {\r\n            return ERC1155_ACCEPTED;\r\n        }\r\n    }\r\n\r\n    function onERC1155BatchReceived(address _operator, address _from, uint256[] calldata _ids, uint256[] calldata _values, bytes calldata _data) external returns(bytes4) {\r\n        (_operator); (_from); (_ids); (_values); (_data); // solidity, be quiet please\r\n\r\n        require(address(this) == proxy, \"Direct call: onERC1155BatchReceived\");\r\n\r\n        if (shouldReject == true) {\r\n            revert(\"onERC1155BatchReceived: transfer not accepted\");\r\n        } else {\r\n            return ERC1155_BATCH_ACCEPTED;\r\n        }\r\n    }\r\n\r\n    // ERC165 interface support\r\n    function supportsInterface(bytes4 interfaceID) external view returns (bool) {\r\n        return  interfaceID == 0x01ffc9a7 ||    // ERC165\r\n                interfaceID == 0x4e2312e0;      // ERC1155_ACCEPTED ^ ERC1155_BATCH_ACCEPTED;\r\n    }\r\n}\r\n",
  "sourcePath": "C:/Users/paulg/Documents/polats/arcade/contracts/ProxyReceiver/Delegates/ERC1155ReceiverDelegate.sol",
  "compiler": {
    "name": "solc",
    "version": "0.5.2+commit.1df8f40c.Emscripten.clang"
  },
  "schemaVersion": "3.0.11",
  "updatedAt": "2019-06-22T03:29:57.450Z",
  "devdoc": {
    "methods": {}
  },
  "userdoc": {
    "methods": {},
    "notice": "////////////////////////////////////////////////////////////////////////////////////////////////"
  }
}