{
  "contractName": "ERC1155",
  "abi": [
    {
      "anonymous": false,
      "inputs": [
        {
          "indexed": true,
          "name": "_operator",
          "type": "address"
        },
        {
          "indexed": true,
          "name": "_from",
          "type": "address"
        },
        {
          "indexed": true,
          "name": "_to",
          "type": "address"
        },
        {
          "indexed": false,
          "name": "_id",
          "type": "uint256"
        },
        {
          "indexed": false,
          "name": "_value",
          "type": "uint256"
        }
      ],
      "name": "TransferSingle",
      "type": "event"
    },
    {
      "anonymous": false,
      "inputs": [
        {
          "indexed": true,
          "name": "_operator",
          "type": "address"
        },
        {
          "indexed": true,
          "name": "_from",
          "type": "address"
        },
        {
          "indexed": true,
          "name": "_to",
          "type": "address"
        },
        {
          "indexed": false,
          "name": "_ids",
          "type": "uint256[]"
        },
        {
          "indexed": false,
          "name": "_values",
          "type": "uint256[]"
        }
      ],
      "name": "TransferBatch",
      "type": "event"
    },
    {
      "anonymous": false,
      "inputs": [
        {
          "indexed": true,
          "name": "_owner",
          "type": "address"
        },
        {
          "indexed": true,
          "name": "_operator",
          "type": "address"
        },
        {
          "indexed": false,
          "name": "_approved",
          "type": "bool"
        }
      ],
      "name": "ApprovalForAll",
      "type": "event"
    },
    {
      "anonymous": false,
      "inputs": [
        {
          "indexed": false,
          "name": "_value",
          "type": "string"
        },
        {
          "indexed": true,
          "name": "_id",
          "type": "uint256"
        }
      ],
      "name": "URI",
      "type": "event"
    },
    {
      "constant": true,
      "inputs": [
        {
          "name": "_interfaceId",
          "type": "bytes4"
        }
      ],
      "name": "supportsInterface",
      "outputs": [
        {
          "name": "",
          "type": "bool"
        }
      ],
      "payable": false,
      "stateMutability": "view",
      "type": "function"
    },
    {
      "constant": false,
      "inputs": [
        {
          "name": "_from",
          "type": "address"
        },
        {
          "name": "_to",
          "type": "address"
        },
        {
          "name": "_id",
          "type": "uint256"
        },
        {
          "name": "_value",
          "type": "uint256"
        },
        {
          "name": "_data",
          "type": "bytes"
        }
      ],
      "name": "safeTransferFrom",
      "outputs": [],
      "payable": false,
      "stateMutability": "nonpayable",
      "type": "function"
    },
    {
      "constant": false,
      "inputs": [
        {
          "name": "_from",
          "type": "address"
        },
        {
          "name": "_to",
          "type": "address"
        },
        {
          "name": "_ids",
          "type": "uint256[]"
        },
        {
          "name": "_values",
          "type": "uint256[]"
        },
        {
          "name": "_data",
          "type": "bytes"
        }
      ],
      "name": "safeBatchTransferFrom",
      "outputs": [],
      "payable": false,
      "stateMutability": "nonpayable",
      "type": "function"
    },
    {
      "constant": true,
      "inputs": [
        {
          "name": "_owner",
          "type": "address"
        },
        {
          "name": "_id",
          "type": "uint256"
        }
      ],
      "name": "balanceOf",
      "outputs": [
        {
          "name": "",
          "type": "uint256"
        }
      ],
      "payable": false,
      "stateMutability": "view",
      "type": "function"
    },
    {
      "constant": true,
      "inputs": [
        {
          "name": "_owners",
          "type": "address[]"
        },
        {
          "name": "_ids",
          "type": "uint256[]"
        }
      ],
      "name": "balanceOfBatch",
      "outputs": [
        {
          "name": "",
          "type": "uint256[]"
        }
      ],
      "payable": false,
      "stateMutability": "view",
      "type": "function"
    },
    {
      "constant": false,
      "inputs": [
        {
          "name": "_operator",
          "type": "address"
        },
        {
          "name": "_approved",
          "type": "bool"
        }
      ],
      "name": "setApprovalForAll",
      "outputs": [],
      "payable": false,
      "stateMutability": "nonpayable",
      "type": "function"
    },
    {
      "constant": true,
      "inputs": [
        {
          "name": "_owner",
          "type": "address"
        },
        {
          "name": "_operator",
          "type": "address"
        }
      ],
      "name": "isApprovedForAll",
      "outputs": [
        {
          "name": "",
          "type": "bool"
        }
      ],
      "payable": false,
      "stateMutability": "view",
      "type": "function"
    }
  ],
  "bytecode": "0x608060405234801561001057600080fd5b506119ce806100206000396000f3fe608060405234801561001057600080fd5b5060043610610099576000357c0100000000000000000000000000000000000000000000000000000000900480634e1273f4116100785780634e1273f4146102c8578063a22cb465146103eb578063e985e9c51461043b578063f242432a146104b757610099565b8062fdd58e1461009e57806301ffc9a7146101005780632eb2c2d614610165575b600080fd5b6100ea600480360360408110156100b457600080fd5b81019080803573ffffffffffffffffffffffffffffffffffffffff16906020019092919080359060200190929190505050610584565b6040518082815260200191505060405180910390f35b61014b6004803603602081101561011657600080fd5b8101908080357bffffffffffffffffffffffffffffffffffffffffffffffffffffffff191690602001909291905050506105de565b604051808215151515815260200191505060405180910390f35b6102c6600480360360a081101561017b57600080fd5b81019080803573ffffffffffffffffffffffffffffffffffffffff169060200190929190803573ffffffffffffffffffffffffffffffffffffffff169060200190929190803590602001906401000000008111156101d857600080fd5b8201836020820111156101ea57600080fd5b8035906020019184602083028401116401000000008311171561020c57600080fd5b90919293919293908035906020019064010000000081111561022d57600080fd5b82018360208201111561023f57600080fd5b8035906020019184602083028401116401000000008311171561026157600080fd5b90919293919293908035906020019064010000000081111561028257600080fd5b82018360208201111561029457600080fd5b803590602001918460018302840111640100000000831117156102b657600080fd5b90919293919293905050506106c7565b005b610394600480360360408110156102de57600080fd5b81019080803590602001906401000000008111156102fb57600080fd5b82018360208201111561030d57600080fd5b8035906020019184602083028401116401000000008311171561032f57600080fd5b90919293919293908035906020019064010000000081111561035057600080fd5b82018360208201111561036257600080fd5b8035906020019184602083028401116401000000008311171561038457600080fd5b9091929391929390505050610c6d565b6040518080602001828103825283818151815260200191508051906020019060200280838360005b838110156103d75780820151818401526020810190506103bc565b505050509050019250505060405180910390f35b6104396004803603604081101561040157600080fd5b81019080803573ffffffffffffffffffffffffffffffffffffffff169060200190929190803515159060200190929190505050610d8d565b005b61049d6004803603604081101561045157600080fd5b81019080803573ffffffffffffffffffffffffffffffffffffffff169060200190929190803573ffffffffffffffffffffffffffffffffffffffff169060200190929190505050610e8e565b604051808215151515815260200191505060405180910390f35b610582600480360360a08110156104cd57600080fd5b81019080803573ffffffffffffffffffffffffffffffffffffffff169060200190929190803573ffffffffffffffffffffffffffffffffffffffff16906020019092919080359060200190929190803590602001909291908035906020019064010000000081111561053e57600080fd5b82018360208201111561055057600080fd5b8035906020019184600183028401116401000000008311171561057257600080fd5b9091929391929390505050610f22565b005b600080600083815260200190815260200160002060008473ffffffffffffffffffffffffffffffffffffffff1673ffffffffffffffffffffffffffffffffffffffff16815260200190815260200160002054905092915050565b60006301ffc9a77c0100000000000000000000000000000000000000000000000000000000027bffffffffffffffffffffffffffffffffffffffffffffffffffffffff1916827bffffffffffffffffffffffffffffffffffffffffffffffffffffffff191614806106af575063d9b67a267c0100000000000000000000000000000000000000000000000000000000027bffffffffffffffffffffffffffffffffffffffffffffffffffffffff1916827bffffffffffffffffffffffffffffffffffffffffffffffffffffffff1916145b156106bd57600190506106c2565b600090505b919050565b600073ffffffffffffffffffffffffffffffffffffffff168773ffffffffffffffffffffffffffffffffffffffff161415151561074f576040517f08c379a00000000000000000000000000000000000000000000000000000000081526004018080602001828103825260258152602001806118af6025913960400191505060405180910390fd5b83839050868690501415156107af576040517f08c379a00000000000000000000000000000000000000000000000000000000081526004018080602001828103825260298152602001806119416029913960400191505060405180910390fd5b3373ffffffffffffffffffffffffffffffffffffffff168873ffffffffffffffffffffffffffffffffffffffff161480610876575060011515600160008a73ffffffffffffffffffffffffffffffffffffffff1673ffffffffffffffffffffffffffffffffffffffff16815260200190815260200160002060003373ffffffffffffffffffffffffffffffffffffffff1673ffffffffffffffffffffffffffffffffffffffff16815260200190815260200160002060009054906101000a900460ff161515145b15156108cd576040517f08c379a000000000000000000000000000000000000000000000000000000000815260040180806020018281038252602f8152602001806118d4602f913960400191505060405180910390fd5b60008090505b86869050811015610a8757600087878381811015156108ee57fe5b9050602002013590506000868684818110151561090757fe5b9050602002013590506109728160008085815260200190815260200160002060008e73ffffffffffffffffffffffffffffffffffffffff1673ffffffffffffffffffffffffffffffffffffffff1681526020019081526020016000205461135290919063ffffffff16565b60008084815260200190815260200160002060008d73ffffffffffffffffffffffffffffffffffffffff1673ffffffffffffffffffffffffffffffffffffffff16815260200190815260200160002081905550610a2760008084815260200190815260200160002060008c73ffffffffffffffffffffffffffffffffffffffff1673ffffffffffffffffffffffffffffffffffffffff168152602001908152602001600020548261136b90919063ffffffff16565b60008084815260200190815260200160002060008c73ffffffffffffffffffffffffffffffffffffffff1673ffffffffffffffffffffffffffffffffffffffff1681526020019081526020016000208190555050508060010190506108d3565b508673ffffffffffffffffffffffffffffffffffffffff168873ffffffffffffffffffffffffffffffffffffffff163373ffffffffffffffffffffffffffffffffffffffff167f4a39dc06d4c0dbc64b70af90fd698a233a518aa5d07e595d983b8c0526c8f7fb898989896040518080602001806020018381038352878782818152602001925060200280828437600081840152601f19601f8201169050808301925050508381038252858582818152602001925060200280828437600081840152601f19601f820116905080830192505050965050505050505060405180910390a4610b898773ffffffffffffffffffffffffffffffffffffffff16611387565b15610c6357610c62338989898980806020026020016040519081016040528093929190818152602001838360200280828437600081840152601f19601f82011690508083019250505050505050888880806020026020016040519081016040528093929190818152602001838360200280828437600081840152601f19601f8201169050808301925050505050505087878080601f016020809104026020016040519081016040528093929190818152602001838380828437600081840152601f19601f8201169050808301925050505050505061139a565b5b5050505050505050565b60608282905085859050141515610c8357600080fd5b606085859050604051908082528060200260200182016040528015610cb75781602001602082028038833980820191505090505b50905060008090505b86869050811015610d80576000808686848181101515610cdc57fe5b90506020020135815260200190815260200160002060008888848181101515610d0157fe5b9050602002013573ffffffffffffffffffffffffffffffffffffffff1673ffffffffffffffffffffffffffffffffffffffff1673ffffffffffffffffffffffffffffffffffffffff168152602001908152602001600020548282815181101515610d6757fe5b9060200190602002018181525050806001019050610cc0565b5080915050949350505050565b80600160003373ffffffffffffffffffffffffffffffffffffffff1673ffffffffffffffffffffffffffffffffffffffff16815260200190815260200160002060008473ffffffffffffffffffffffffffffffffffffffff1673ffffffffffffffffffffffffffffffffffffffff16815260200190815260200160002060006101000a81548160ff0219169083151502179055508173ffffffffffffffffffffffffffffffffffffffff163373ffffffffffffffffffffffffffffffffffffffff167f17307eab39ab6107e8899845ad3d59bd9653f200f220920489ca2b5937696c3183604051808215151515815260200191505060405180910390a35050565b6000600160008473ffffffffffffffffffffffffffffffffffffffff1673ffffffffffffffffffffffffffffffffffffffff16815260200190815260200160002060008373ffffffffffffffffffffffffffffffffffffffff1673ffffffffffffffffffffffffffffffffffffffff16815260200190815260200160002060009054906101000a900460ff16905092915050565b600073ffffffffffffffffffffffffffffffffffffffff168573ffffffffffffffffffffffffffffffffffffffff1614151515610fc7576040517f08c379a00000000000000000000000000000000000000000000000000000000081526004018080602001828103825260158152602001807f5f746f206d757374206265206e6f6e2d7a65726f2e000000000000000000000081525060200191505060405180910390fd5b3373ffffffffffffffffffffffffffffffffffffffff168673ffffffffffffffffffffffffffffffffffffffff16148061108e575060011515600160008873ffffffffffffffffffffffffffffffffffffffff1673ffffffffffffffffffffffffffffffffffffffff16815260200190815260200160002060003373ffffffffffffffffffffffffffffffffffffffff1673ffffffffffffffffffffffffffffffffffffffff16815260200190815260200160002060009054906101000a900460ff161515145b15156110e5576040517f08c379a000000000000000000000000000000000000000000000000000000000815260040180806020018281038252602f8152602001806118d4602f913960400191505060405180910390fd5b6111478360008087815260200190815260200160002060008973ffffffffffffffffffffffffffffffffffffffff1673ffffffffffffffffffffffffffffffffffffffff1681526020019081526020016000205461135290919063ffffffff16565b60008086815260200190815260200160002060008873ffffffffffffffffffffffffffffffffffffffff1673ffffffffffffffffffffffffffffffffffffffff168152602001908152602001600020819055506111fc60008086815260200190815260200160002060008773ffffffffffffffffffffffffffffffffffffffff1673ffffffffffffffffffffffffffffffffffffffff168152602001908152602001600020548461136b90919063ffffffff16565b60008086815260200190815260200160002060008773ffffffffffffffffffffffffffffffffffffffff1673ffffffffffffffffffffffffffffffffffffffff168152602001908152602001600020819055508473ffffffffffffffffffffffffffffffffffffffff168673ffffffffffffffffffffffffffffffffffffffff163373ffffffffffffffffffffffffffffffffffffffff167fc3d58168c5ae7397731d063d5bbf3d657854427343f4c083240f7aacaa2d0f628787604051808381526020018281526020019250505060405180910390a46112f28573ffffffffffffffffffffffffffffffffffffffff16611387565b1561134a57611349338787878787878080601f016020809104026020016040519081016040528093929190818152602001838380828437600081840152601f19601f82011690508083019250505050505050611665565b5b505050505050565b600082821115151561136057fe5b818303905092915050565b6000818301905082811015151561137e57fe5b80905092915050565b600080823b905060008111915050919050565b63bc197c817c0100000000000000000000000000000000000000000000000000000000027bffffffffffffffffffffffffffffffffffffffffffffffffffffffff19168473ffffffffffffffffffffffffffffffffffffffff1663bc197c8188888787876040518663ffffffff167c0100000000000000000000000000000000000000000000000000000000028152600401808673ffffffffffffffffffffffffffffffffffffffff1673ffffffffffffffffffffffffffffffffffffffff1681526020018573ffffffffffffffffffffffffffffffffffffffff1673ffffffffffffffffffffffffffffffffffffffff168152602001806020018060200180602001848103845287818151815260200191508051906020019060200280838360005b838110156114d85780820151818401526020810190506114bd565b50505050905001848103835286818151815260200191508051906020019060200280838360005b8381101561151a5780820151818401526020810190506114ff565b50505050905001848103825285818151815260200191508051906020019080838360005b8381101561155957808201518184015260208101905061153e565b50505050905090810190601f1680156115865780820380516001836020036101000a031916815260200191505b5098505050505050505050602060405180830381600087803b1580156115ab57600080fd5b505af11580156115bf573d6000803e3d6000fd5b505050506040513d60208110156115d557600080fd5b81019080805190602001909291905050507bffffffffffffffffffffffffffffffffffffffffffffffffffffffff191614151561165d576040517f08c379a000000000000000000000000000000000000000000000000000000000815260040180806020018281038252603e815260200180611903603e913960400191505060405180910390fd5b505050505050565b63f23a6e617c0100000000000000000000000000000000000000000000000000000000027bffffffffffffffffffffffffffffffffffffffffffffffffffffffff19168473ffffffffffffffffffffffffffffffffffffffff1663f23a6e6188888787876040518663ffffffff167c0100000000000000000000000000000000000000000000000000000000028152600401808673ffffffffffffffffffffffffffffffffffffffff1673ffffffffffffffffffffffffffffffffffffffff1681526020018573ffffffffffffffffffffffffffffffffffffffff1673ffffffffffffffffffffffffffffffffffffffff16815260200184815260200183815260200180602001828103825283818151815260200191508051906020019080838360005b838110156117a4578082015181840152602081019050611789565b50505050905090810190601f1680156117d15780820380516001836020036101000a031916815260200191505b509650505050505050602060405180830381600087803b1580156117f457600080fd5b505af1158015611808573d6000803e3d6000fd5b505050506040513d602081101561181e57600080fd5b81019080805190602001909291905050507bffffffffffffffffffffffffffffffffffffffffffffffffffffffff19161415156118a6576040517f08c379a000000000000000000000000000000000000000000000000000000000815260040180806020018281038252603981526020018061196a6039913960400191505060405180910390fd5b50505050505056fe64657374696e6174696f6e2061646472657373206d757374206265206e6f6e2d7a65726f2e4e656564206f70657261746f7220617070726f76616c20666f7220337264207061727479207472616e73666572732e636f6e74726163742072657475726e656420616e20756e6b6e6f776e2076616c75652066726f6d206f6e45524331313535426174636852656365697665645f69647320616e64205f76616c756573206172726179206c656e676874206d757374206d617463682e636f6e74726163742072657475726e656420616e20756e6b6e6f776e2076616c75652066726f6d206f6e455243313135355265636569766564a165627a7a723058209618c82620bcc7c39629f82edc8eccaf4992eb5635facaa212bf8ecf08a9fadf0029",
  "source": "pragma solidity ^0.5.0;\r\n\r\nimport \"./SafeMath.sol\";\r\nimport \"./Address.sol\";\r\nimport \"./Common.sol\";\r\nimport \"./IERC1155TokenReceiver.sol\";\r\nimport \"./IERC1155.sol\";\r\n\r\n// A sample implementation of core ERC1155 function.\r\ncontract ERC1155 is IERC1155, ERC165, CommonConstants\r\n{\r\n    using SafeMath for uint256;\r\n    using Address for address;\r\n\r\n    // id => (owner => balance)\r\n    mapping (uint256 => mapping(address => uint256)) internal balances;\r\n\r\n    // owner => (operator => approved)\r\n    mapping (address => mapping(address => bool)) internal operatorApproval;\r\n\r\n/////////////////////////////////////////// ERC165 //////////////////////////////////////////////\r\n\r\n    /*\r\n        bytes4(keccak256('supportsInterface(bytes4)'));\r\n    */\r\n    bytes4 constant private INTERFACE_SIGNATURE_ERC165 = 0x01ffc9a7;\r\n\r\n    /*\r\n        bytes4(keccak256(\"safeTransferFrom(address,address,uint256,uint256,bytes)\")) ^\r\n        bytes4(keccak256(\"safeBatchTransferFrom(address,address,uint256[],uint256[],bytes)\")) ^\r\n        bytes4(keccak256(\"balanceOf(address,uint256)\")) ^\r\n        bytes4(keccak256(\"balanceOfBatch(address[],uint256[])\")) ^\r\n        bytes4(keccak256(\"setApprovalForAll(address,bool)\")) ^\r\n        bytes4(keccak256(\"isApprovedForAll(address,address)\"));\r\n    */\r\n    bytes4 constant private INTERFACE_SIGNATURE_ERC1155 = 0xd9b67a26;\r\n\r\n    function supportsInterface(bytes4 _interfaceId)\r\n    public\r\n    view\r\n    returns (bool) {\r\n         if (_interfaceId == INTERFACE_SIGNATURE_ERC165 ||\r\n             _interfaceId == INTERFACE_SIGNATURE_ERC1155) {\r\n            return true;\r\n         }\r\n\r\n         return false;\r\n    }\r\n\r\n/////////////////////////////////////////// ERC1155 //////////////////////////////////////////////\r\n\r\n    /**\r\n        @notice Transfers `_value` amount of an `_id` from the `_from` address to the `_to` address specified (with safety call).\r\n        @dev Caller must be approved to manage the tokens being transferred out of the `_from` account (see \"Approval\" section of the standard).\r\n        MUST revert if `_to` is the zero address.\r\n        MUST revert if balance of holder for token `_id` is lower than the `_value` sent.\r\n        MUST revert on any other error.\r\n        MUST emit the `TransferSingle` event to reflect the balance change (see \"Safe Transfer Rules\" section of the standard).\r\n        After the above conditions are met, this function MUST check if `_to` is a smart contract (e.g. code size > 0). If so, it MUST call `onERC1155Received` on `_to` and act appropriately (see \"Safe Transfer Rules\" section of the standard).\r\n        @param _from    Source address\r\n        @param _to      Target address\r\n        @param _id      ID of the token type\r\n        @param _value   Transfer amount\r\n        @param _data    Additional data with no specified format, MUST be sent unaltered in call to `onERC1155Received` on `_to`\r\n    */\r\n    function safeTransferFrom(address _from, address _to, uint256 _id, uint256 _value, bytes calldata _data) external {\r\n\r\n        require(_to != address(0x0), \"_to must be non-zero.\");\r\n        require(_from == msg.sender || operatorApproval[_from][msg.sender] == true, \"Need operator approval for 3rd party transfers.\");\r\n\r\n        // SafeMath will throw with insuficient funds _from\r\n        // or if _id is not valid (balance will be 0)\r\n        balances[_id][_from] = balances[_id][_from].sub(_value);\r\n        balances[_id][_to]   = _value.add(balances[_id][_to]);\r\n\r\n        // MUST emit event\r\n        emit TransferSingle(msg.sender, _from, _to, _id, _value);\r\n\r\n        // Now that the balance is updated and the event was emitted,\r\n        // call onERC1155Received if the destination is a contract.\r\n        if (_to.isContract()) {\r\n            _doSafeTransferAcceptanceCheck(msg.sender, _from, _to, _id, _value, _data);\r\n        }\r\n    }\r\n\r\n    /**\r\n        @notice Transfers `_values` amount(s) of `_ids` from the `_from` address to the `_to` address specified (with safety call).\r\n        @dev Caller must be approved to manage the tokens being transferred out of the `_from` account (see \"Approval\" section of the standard).\r\n        MUST revert if `_to` is the zero address.\r\n        MUST revert if length of `_ids` is not the same as length of `_values`.\r\n        MUST revert if any of the balance(s) of the holder(s) for token(s) in `_ids` is lower than the respective amount(s) in `_values` sent to the recipient.\r\n        MUST revert on any other error.\r\n        MUST emit `TransferSingle` or `TransferBatch` event(s) such that all the balance changes are reflected (see \"Safe Transfer Rules\" section of the standard).\r\n        Balance changes and events MUST follow the ordering of the arrays (_ids[0]/_values[0] before _ids[1]/_values[1], etc).\r\n        After the above conditions for the transfer(s) in the batch are met, this function MUST check if `_to` is a smart contract (e.g. code size > 0). If so, it MUST call the relevant `ERC1155TokenReceiver` hook(s) on `_to` and act appropriately (see \"Safe Transfer Rules\" section of the standard).\r\n        @param _from    Source address\r\n        @param _to      Target address\r\n        @param _ids     IDs of each token type (order and length must match _values array)\r\n        @param _values  Transfer amounts per token type (order and length must match _ids array)\r\n        @param _data    Additional data with no specified format, MUST be sent unaltered in call to the `ERC1155TokenReceiver` hook(s) on `_to`\r\n    */\r\n    function safeBatchTransferFrom(address _from, address _to, uint256[] calldata _ids, uint256[] calldata _values, bytes calldata _data) external {\r\n\r\n        // MUST Throw on errors\r\n        require(_to != address(0x0), \"destination address must be non-zero.\");\r\n        require(_ids.length == _values.length, \"_ids and _values array lenght must match.\");\r\n        require(_from == msg.sender || operatorApproval[_from][msg.sender] == true, \"Need operator approval for 3rd party transfers.\");\r\n\r\n        for (uint256 i = 0; i < _ids.length; ++i) {\r\n            uint256 id = _ids[i];\r\n            uint256 value = _values[i];\r\n\r\n            // SafeMath will throw with insuficient funds _from\r\n            // or if _id is not valid (balance will be 0)\r\n            balances[id][_from] = balances[id][_from].sub(value);\r\n            balances[id][_to]   = value.add(balances[id][_to]);\r\n        }\r\n\r\n        // Note: instead of the below batch versions of event and acceptance check you MAY have emitted a TransferSingle\r\n        // event and a subsequent call to _doSafeTransferAcceptanceCheck in above loop for each balance change instead.\r\n        // Or emitted a TransferSingle event for each in the loop and then the single _doSafeBatchTransferAcceptanceCheck below.\r\n        // However it is implemented the balance changes and events MUST match when a check (i.e. calling an external contract) is done.\r\n\r\n        // MUST emit event\r\n        emit TransferBatch(msg.sender, _from, _to, _ids, _values);\r\n\r\n        // Now that the balances are updated and the events are emitted,\r\n        // call onERC1155BatchReceived if the destination is a contract.\r\n        if (_to.isContract()) {\r\n            _doSafeBatchTransferAcceptanceCheck(msg.sender, _from, _to, _ids, _values, _data);\r\n        }\r\n    }\r\n\r\n    /**\r\n        @notice Get the balance of an account's Tokens.\r\n        @param _owner  The address of the token holder\r\n        @param _id     ID of the Token\r\n        @return        The _owner's balance of the Token type requested\r\n     */\r\n    function balanceOf(address _owner, uint256 _id) external view returns (uint256) {\r\n        // The balance of any account can be calculated from the Transfer events history.\r\n        // However, since we need to keep the balances to validate transfer request,\r\n        // there is no extra cost to also privide a querry function.\r\n        return balances[_id][_owner];\r\n    }\r\n\r\n\r\n    /**\r\n        @notice Get the balance of multiple account/token pairs\r\n        @param _owners The addresses of the token holders\r\n        @param _ids    ID of the Tokens\r\n        @return        The _owner's balance of the Token types requested (i.e. balance for each (owner, id) pair)\r\n     */\r\n    function balanceOfBatch(address[] calldata _owners, uint256[] calldata _ids) external view returns (uint256[] memory) {\r\n\r\n        require(_owners.length == _ids.length);\r\n\r\n        uint256[] memory balances_ = new uint256[](_owners.length);\r\n\r\n        for (uint256 i = 0; i < _owners.length; ++i) {\r\n            balances_[i] = balances[_ids[i]][_owners[i]];\r\n        }\r\n\r\n        return balances_;\r\n    }\r\n\r\n    /**\r\n        @notice Enable or disable approval for a third party (\"operator\") to manage all of the caller's tokens.\r\n        @dev MUST emit the ApprovalForAll event on success.\r\n        @param _operator  Address to add to the set of authorized operators\r\n        @param _approved  True if the operator is approved, false to revoke approval\r\n    */\r\n    function setApprovalForAll(address _operator, bool _approved) external {\r\n        operatorApproval[msg.sender][_operator] = _approved;\r\n        emit ApprovalForAll(msg.sender, _operator, _approved);\r\n    }\r\n\r\n    /**\r\n        @notice Queries the approval status of an operator for a given owner.\r\n        @param _owner     The owner of the Tokens\r\n        @param _operator  Address of authorized operator\r\n        @return           True if the operator is approved, false if not\r\n    */\r\n    function isApprovedForAll(address _owner, address _operator) external view returns (bool) {\r\n        return operatorApproval[_owner][_operator];\r\n    }\r\n\r\n/////////////////////////////////////////// Internal //////////////////////////////////////////////\r\n\r\n    function _doSafeTransferAcceptanceCheck(address _operator, address _from, address _to, uint256 _id, uint256 _value, bytes memory _data) internal {\r\n\r\n        // If this was a hybrid standards solution you would have to check ERC165(_to).supportsInterface(0x4e2312e0) here but as this is a pure implementation of an ERC-1155 token set as recommended by\r\n        // the standard, it is not necessary. The below should revert in all failure cases i.e. _to isn't a receiver, or it is and either returns an unknown value or it reverts in the call to indicate non-acceptance.\r\n\r\n\r\n        // Note: if the below reverts in the onERC1155Received function of the _to address you will have an undefined revert reason returned rather than the one in the require test.\r\n        // If you want predictable revert reasons consider using low level _to.call() style instead so the revert does not bubble up and you can revert yourself on the ERC1155_ACCEPTED test.\r\n        require(ERC1155TokenReceiver(_to).onERC1155Received(_operator, _from, _id, _value, _data) == ERC1155_ACCEPTED, \"contract returned an unknown value from onERC1155Received\");\r\n    }\r\n\r\n    function _doSafeBatchTransferAcceptanceCheck(address _operator, address _from, address _to, uint256[] memory _ids, uint256[] memory _values, bytes memory _data) internal {\r\n\r\n        // If this was a hybrid standards solution you would have to check ERC165(_to).supportsInterface(0x4e2312e0) here but as this is a pure implementation of an ERC-1155 token set as recommended by\r\n        // the standard, it is not necessary. The below should revert in all failure cases i.e. _to isn't a receiver, or it is and either returns an unknown value or it reverts in the call to indicate non-acceptance.\r\n\r\n        // Note: if the below reverts in the onERC1155BatchReceived function of the _to address you will have an undefined revert reason returned rather than the one in the require test.\r\n        // If you want predictable revert reasons consider using low level _to.call() style instead so the revert does not bubble up and you can revert yourself on the ERC1155_BATCH_ACCEPTED test.\r\n        require(ERC1155TokenReceiver(_to).onERC1155BatchReceived(_operator, _from, _ids, _values, _data) == ERC1155_BATCH_ACCEPTED, \"contract returned an unknown value from onERC1155BatchReceived\");\r\n    }\r\n}\r\n",
  "sourcePath": "C:\\Users\\paulg\\Documents\\polats\\arcade\\contracts\\ERC1155.sol",
  "compiler": {
    "name": "solc",
    "version": "0.5.2+commit.1df8f40c.Emscripten.clang"
  },
  "schemaVersion": "3.0.11",
  "updatedAt": "2019-06-22T03:29:57.357Z",
  "devdoc": {
    "methods": {
      "balanceOf(address,uint256)": {
        "params": {
          "_id": "ID of the Token\r",
          "_owner": "The address of the token holder\r"
        },
        "return": "The _owner's balance of the Token type requested\r"
      },
      "balanceOfBatch(address[],uint256[])": {
        "params": {
          "_ids": "ID of the Tokens\r",
          "_owners": "The addresses of the token holders\r"
        },
        "return": "The _owner's balance of the Token types requested (i.e. balance for each (owner, id) pair)\r"
      },
      "isApprovedForAll(address,address)": {
        "params": {
          "_operator": "Address of authorized operator\r",
          "_owner": "The owner of the Tokens\r"
        },
        "return": "True if the operator is approved, false if not\r"
      },
      "safeBatchTransferFrom(address,address,uint256[],uint256[],bytes)": {
        "details": "Caller must be approved to manage the tokens being transferred out of the `_from` account (see \"Approval\" section of the standard).\r MUST revert if `_to` is the zero address.\r MUST revert if length of `_ids` is not the same as length of `_values`.\r MUST revert if any of the balance(s) of the holder(s) for token(s) in `_ids` is lower than the respective amount(s) in `_values` sent to the recipient.\r MUST revert on any other error.\r MUST emit `TransferSingle` or `TransferBatch` event(s) such that all the balance changes are reflected (see \"Safe Transfer Rules\" section of the standard).\r Balance changes and events MUST follow the ordering of the arrays (_ids[0]/_values[0] before _ids[1]/_values[1], etc).\r After the above conditions for the transfer(s) in the batch are met, this function MUST check if `_to` is a smart contract (e.g. code size > 0). If so, it MUST call the relevant `ERC1155TokenReceiver` hook(s) on `_to` and act appropriately (see \"Safe Transfer Rules\" section of the standard).\r",
        "params": {
          "_data": "Additional data with no specified format, MUST be sent unaltered in call to the `ERC1155TokenReceiver` hook(s) on `_to`\r",
          "_from": "Source address\r",
          "_ids": "IDs of each token type (order and length must match _values array)\r",
          "_to": "Target address\r",
          "_values": "Transfer amounts per token type (order and length must match _ids array)\r"
        }
      },
      "safeTransferFrom(address,address,uint256,uint256,bytes)": {
        "details": "Caller must be approved to manage the tokens being transferred out of the `_from` account (see \"Approval\" section of the standard).\r MUST revert if `_to` is the zero address.\r MUST revert if balance of holder for token `_id` is lower than the `_value` sent.\r MUST revert on any other error.\r MUST emit the `TransferSingle` event to reflect the balance change (see \"Safe Transfer Rules\" section of the standard).\r After the above conditions are met, this function MUST check if `_to` is a smart contract (e.g. code size > 0). If so, it MUST call `onERC1155Received` on `_to` and act appropriately (see \"Safe Transfer Rules\" section of the standard).\r",
        "params": {
          "_data": "Additional data with no specified format, MUST be sent unaltered in call to `onERC1155Received` on `_to`\r",
          "_from": "Source address\r",
          "_id": "ID of the token type\r",
          "_to": "Target address\r",
          "_value": "Transfer amount\r"
        }
      },
      "setApprovalForAll(address,bool)": {
        "details": "MUST emit the ApprovalForAll event on success.\r",
        "params": {
          "_approved": "True if the operator is approved, false to revoke approval\r",
          "_operator": "Address to add to the set of authorized operators\r"
        }
      }
    }
  },
  "userdoc": {
    "methods": {
      "balanceOf(address,uint256)": {
        "notice": "Get the balance of an account's Tokens.\r"
      },
      "balanceOfBatch(address[],uint256[])": {
        "notice": "Get the balance of multiple account/token pairs\r"
      },
      "isApprovedForAll(address,address)": {
        "notice": "Queries the approval status of an operator for a given owner.\r"
      },
      "safeBatchTransferFrom(address,address,uint256[],uint256[],bytes)": {
        "notice": "Transfers `_values` amount(s) of `_ids` from the `_from` address to the `_to` address specified (with safety call).\r"
      },
      "safeTransferFrom(address,address,uint256,uint256,bytes)": {
        "notice": "Transfers `_value` amount of an `_id` from the `_from` address to the `_to` address specified (with safety call).\r"
      },
      "setApprovalForAll(address,bool)": {
        "notice": "Enable or disable approval for a third party (\"operator\") to manage all of the caller's tokens.\r"
      }
    }
  }
}