{
  "contractName": "ERCXXXXReceiverDelegate",
  "abi": [
    {
      "constant": true,
      "inputs": [],
      "name": "shouldReject",
      "outputs": [
        {
          "name": "",
          "type": "bool"
        }
      ],
      "payable": false,
      "stateMutability": "view",
      "type": "function"
    },
    {
      "constant": true,
      "inputs": [],
      "name": "shouldRejectXXXX",
      "outputs": [
        {
          "name": "",
          "type": "bool"
        }
      ],
      "payable": false,
      "stateMutability": "view",
      "type": "function"
    },
    {
      "constant": true,
      "inputs": [
        {
          "name": "",
          "type": "bytes4"
        }
      ],
      "name": "delegates",
      "outputs": [
        {
          "name": "",
          "type": "address"
        }
      ],
      "payable": false,
      "stateMutability": "view",
      "type": "function"
    },
    {
      "constant": true,
      "inputs": [],
      "name": "NOT_ERCXXXX_RECEIVED",
      "outputs": [
        {
          "name": "",
          "type": "bytes4"
        }
      ],
      "payable": false,
      "stateMutability": "view",
      "type": "function"
    },
    {
      "constant": true,
      "inputs": [],
      "name": "ERCXXXX_RECEIVED",
      "outputs": [
        {
          "name": "",
          "type": "bytes4"
        }
      ],
      "payable": false,
      "stateMutability": "view",
      "type": "function"
    },
    {
      "constant": true,
      "inputs": [],
      "name": "ERCXXXX_BATCH_RECEIVED",
      "outputs": [
        {
          "name": "",
          "type": "bytes4"
        }
      ],
      "payable": false,
      "stateMutability": "view",
      "type": "function"
    },
    {
      "constant": false,
      "inputs": [
        {
          "name": "_value",
          "type": "bool"
        }
      ],
      "name": "setShouldRejectClash",
      "outputs": [],
      "payable": false,
      "stateMutability": "nonpayable",
      "type": "function"
    },
    {
      "constant": false,
      "inputs": [
        {
          "name": "_value",
          "type": "bool"
        }
      ],
      "name": "setShouldRejectXXXX",
      "outputs": [],
      "payable": false,
      "stateMutability": "nonpayable",
      "type": "function"
    },
    {
      "constant": true,
      "inputs": [
        {
          "name": "_operator",
          "type": "address"
        },
        {
          "name": "_from",
          "type": "address"
        },
        {
          "name": "_id",
          "type": "uint256"
        },
        {
          "name": "_value",
          "type": "uint256"
        },
        {
          "name": "_data",
          "type": "bytes"
        }
      ],
      "name": "onERCXXXXReceived",
      "outputs": [
        {
          "name": "",
          "type": "bytes4"
        }
      ],
      "payable": false,
      "stateMutability": "view",
      "type": "function"
    },
    {
      "constant": true,
      "inputs": [
        {
          "name": "_operator",
          "type": "address"
        },
        {
          "name": "_from",
          "type": "address"
        },
        {
          "name": "_ids",
          "type": "uint256[]"
        },
        {
          "name": "_values",
          "type": "uint256[]"
        },
        {
          "name": "_data",
          "type": "bytes"
        }
      ],
      "name": "onERCXXXXBatchReceived",
      "outputs": [
        {
          "name": "",
          "type": "bytes4"
        }
      ],
      "payable": false,
      "stateMutability": "view",
      "type": "function"
    }
  ],
  "bytecode": "0x608060405234801561001057600080fd5b50610b21806100206000396000f3fe608060405234801561001057600080fd5b50600436106100bb576000357c010000000000000000000000000000000000000000000000000000000090048063b689697f11610083578063b689697f146101f1578063b766c3791461024d578063e9e5be6a146102a9578063eb510be81461045e578063ffbd487d1461057d576100bb565b80631dbb9381146100c05780632090dd24146100e257806380f5fe741461011257806391ad57bd14610142578063a0a2daf014610164575b600080fd5b6100c86105d9565b604051808215151515815260200191505060405180910390f35b610110600480360360208110156100f857600080fd5b810190808035151590602001909291905050506105ec565b005b6101406004803603602081101561012857600080fd5b810190808035151590602001909291905050506106b1565b005b61014a610793565b604051808215151515815260200191505060405180910390f35b6101af6004803603602081101561017a57600080fd5b8101908080357bffffffffffffffffffffffffffffffffffffffffffffffffffffffff191690602001909291905050506107a6565b604051808273ffffffffffffffffffffffffffffffffffffffff1673ffffffffffffffffffffffffffffffffffffffff16815260200191505060405180910390f35b6101f96107d9565b60405180827bffffffffffffffffffffffffffffffffffffffffffffffffffffffff19167bffffffffffffffffffffffffffffffffffffffffffffffffffffffff1916815260200191505060405180910390f35b610255610800565b60405180827bffffffffffffffffffffffffffffffffffffffffffffffffffffffff19167bffffffffffffffffffffffffffffffffffffffffffffffffffffffff1916815260200191505060405180910390f35b61040a600480360360a08110156102bf57600080fd5b81019080803573ffffffffffffffffffffffffffffffffffffffff169060200190929190803573ffffffffffffffffffffffffffffffffffffffff1690602001909291908035906020019064010000000081111561031c57600080fd5b82018360208201111561032e57600080fd5b8035906020019184602083028401116401000000008311171561035057600080fd5b90919293919293908035906020019064010000000081111561037157600080fd5b82018360208201111561038357600080fd5b803590602001918460208302840111640100000000831117156103a557600080fd5b9091929391929390803590602001906401000000008111156103c657600080fd5b8201836020820111156103d857600080fd5b803590602001918460018302840111640100000000831117156103fa57600080fd5b9091929391929390505050610827565b60405180827bffffffffffffffffffffffffffffffffffffffffffffffffffffffff19167bffffffffffffffffffffffffffffffffffffffffffffffffffffffff1916815260200191505060405180910390f35b610529600480360360a081101561047457600080fd5b81019080803573ffffffffffffffffffffffffffffffffffffffff169060200190929190803573ffffffffffffffffffffffffffffffffffffffff1690602001909291908035906020019092919080359060200190929190803590602001906401000000008111156104e557600080fd5b8201836020820111156104f757600080fd5b8035906020019184600183028401116401000000008311171561051957600080fd5b909192939192939050505061094b565b60405180827bffffffffffffffffffffffffffffffffffffffffffffffffffffffff19167bffffffffffffffffffffffffffffffffffffffffffffffffffffffff1916815260200191505060405180910390f35b610585610a8a565b60405180827bffffffffffffffffffffffffffffffffffffffffffffffffffffffff19167bffffffffffffffffffffffffffffffffffffffffffffffffffffffff1916815260200191505060405180910390f35b600360149054906101000a900460ff1681565b600360009054906101000a900473ffffffffffffffffffffffffffffffffffffffff1673ffffffffffffffffffffffffffffffffffffffff163073ffffffffffffffffffffffffffffffffffffffff16141515610694576040517f08c379a0000000000000000000000000000000000000000000000000000000008152600401808060200182810382526021815260200180610ab26021913960400191505060405180910390fd5b80600360146101000a81548160ff02191690831515021790555050565b600360009054906101000a900473ffffffffffffffffffffffffffffffffffffffff1673ffffffffffffffffffffffffffffffffffffffff163073ffffffffffffffffffffffffffffffffffffffff16141515610776576040517f08c379a00000000000000000000000000000000000000000000000000000000081526004018080602001828103825260208152602001807f4469726563742063616c6c3a2073657453686f756c6452656a6563745858585881525060200191505060405180910390fd5b80600360156101000a81548160ff02191690831515021790555050565b600360159054906101000a900460ff1681565b60006020528060005260406000206000915054906101000a900473ffffffffffffffffffffffffffffffffffffffff1681565b63deadf00d7c01000000000000000000000000000000000000000000000000000000000281565b631234aaaa7c01000000000000000000000000000000000000000000000000000000000281565b6000600360009054906101000a900473ffffffffffffffffffffffffffffffffffffffff1673ffffffffffffffffffffffffffffffffffffffff163073ffffffffffffffffffffffffffffffffffffffff161415156108d1576040517f08c379a0000000000000000000000000000000000000000000000000000000008152600401808060200182810382526023815260200180610ad36023913960400191505060405180910390fd5b60011515600360159054906101000a900460ff16151514156109185763deadf00d7c010000000000000000000000000000000000000000000000000000000002905061093f565b634321bbbb7c01000000000000000000000000000000000000000000000000000000000290505b98975050505050505050565b6000600360009054906101000a900473ffffffffffffffffffffffffffffffffffffffff1673ffffffffffffffffffffffffffffffffffffffff163073ffffffffffffffffffffffffffffffffffffffff16141515610a12576040517f08c379a000000000000000000000000000000000000000000000000000000000815260040180806020018281038252601e8152602001807f4469726563742063616c6c3a206f6e455243585858585265636569766564000081525060200191505060405180910390fd5b60011515600360159054906101000a900460ff1615151415610a595763deadf00d7c0100000000000000000000000000000000000000000000000000000000029050610a80565b631234aaaa7c01000000000000000000000000000000000000000000000000000000000290505b9695505050505050565b634321bbbb7c0100000000000000000000000000000000000000000000000000000000028156fe4469726563742063616c6c3a2073657453686f756c6452656a656374436c6173684469726563742063616c6c3a206f6e4552435858585842617463685265636569766564a165627a7a72305820af1337aa77fc4b58bf49a21c639d4e7479c3ff02b6ad75e5167c93152b954af30029",
  "source": "pragma solidity ^0.5.0;\r\n\r\nimport \"./DelegatesStorage.sol\";\r\n\r\n///////////////////////////////////////////////////////////////////////////////////////////////////\r\n/**\r\n * @title ERCXXXXReceiverDelegate\r\n * @dev Contract to test safe transfer behavior via proxy with future standard delegate.\r\n */\r\n///////////////////////////////////////////////////////////////////////////////////////////////////\r\n\r\ncontract ERCXXXXReceiverDelegate is ProxyReceiverStorage_002_ERCXXXXFuture {\r\n\r\n    bytes4 constant public ERCXXXX_RECEIVED = 0x1234AAAA;\r\n    bytes4 constant public ERCXXXX_BATCH_RECEIVED = 0x4321BBBB;\r\n    bytes4 constant public NOT_ERCXXXX_RECEIVED = 0xDEADF00D; // Some random value\r\n\r\n    function setShouldRejectClash(bool _value) external {\r\n        require(address(this) == proxy, \"Direct call: setShouldRejectClash\");\r\n\r\n        shouldReject = _value;\r\n    }\r\n\r\n    function setShouldRejectXXXX(bool _value) external {\r\n        require(address(this) == proxy, \"Direct call: setShouldRejectXXXX\");\r\n\r\n        shouldRejectXXXX = _value;\r\n    }\r\n\r\n    function onERCXXXXReceived(address _operator, address _from, uint256 _id, uint256 _value, bytes calldata _data) external view returns(bytes4) {\r\n        (_operator); (_from); (_id); (_value); (_data);  // solidity, be quiet please\r\n\r\n        require(address(this) == proxy, \"Direct call: onERCXXXXReceived\");\r\n\r\n        if (shouldRejectXXXX == true) {\r\n            return NOT_ERCXXXX_RECEIVED;\r\n        } else {\r\n            return ERCXXXX_RECEIVED;\r\n        }\r\n    }\r\n\r\n    function onERCXXXXBatchReceived(address _operator, address _from, uint256[] calldata _ids, uint256[] calldata _values, bytes calldata _data) external view returns(bytes4) {\r\n        (_operator); (_from); (_ids); (_values); (_data);  // solidity, be quiet please\r\n\r\n        require(address(this) == proxy, \"Direct call: onERCXXXXBatchReceived\");\r\n\r\n        if (shouldRejectXXXX == true) {\r\n            return NOT_ERCXXXX_RECEIVED;\r\n        } else {\r\n            return ERCXXXX_BATCH_RECEIVED;\r\n        }\r\n    }\r\n}\r\n",
  "sourcePath": "C:/Users/paulg/Documents/polats/arcade/contracts/ProxyReceiver/Delegates/ERCXXXXReceiverDelegate.sol",
  "compiler": {
    "name": "solc",
    "version": "0.5.2+commit.1df8f40c.Emscripten.clang"
  },
  "schemaVersion": "3.0.11",
  "updatedAt": "2019-06-22T03:29:57.459Z",
  "devdoc": {
    "methods": {}
  },
  "userdoc": {
    "methods": {},
    "notice": "////////////////////////////////////////////////////////////////////////////////////////////////"
  }
}