{
  "contractName": "ProxyReceiverStorage_002_ERCXXXXFuture",
  "abi": [
    {
      "constant": true,
      "inputs": [],
      "name": "shouldReject",
      "outputs": [
        {
          "name": "",
          "type": "bool"
        }
      ],
      "payable": false,
      "stateMutability": "view",
      "type": "function"
    },
    {
      "constant": true,
      "inputs": [],
      "name": "shouldRejectXXXX",
      "outputs": [
        {
          "name": "",
          "type": "bool"
        }
      ],
      "payable": false,
      "stateMutability": "view",
      "type": "function"
    },
    {
      "constant": true,
      "inputs": [
        {
          "name": "",
          "type": "bytes4"
        }
      ],
      "name": "delegates",
      "outputs": [
        {
          "name": "",
          "type": "address"
        }
      ],
      "payable": false,
      "stateMutability": "view",
      "type": "function"
    }
  ],
  "bytecode": "0x608060405234801561001057600080fd5b506101b9806100206000396000f3fe608060405234801561001057600080fd5b506004361061005e576000357c0100000000000000000000000000000000000000000000000000000000900480631dbb93811461006357806391ad57bd14610085578063a0a2daf0146100a7575b600080fd5b61006b610134565b604051808215151515815260200191505060405180910390f35b61008d610147565b604051808215151515815260200191505060405180910390f35b6100f2600480360360208110156100bd57600080fd5b8101908080357bffffffffffffffffffffffffffffffffffffffffffffffffffffffff1916906020019092919050505061015a565b604051808273ffffffffffffffffffffffffffffffffffffffff1673ffffffffffffffffffffffffffffffffffffffff16815260200191505060405180910390f35b600360149054906101000a900460ff1681565b600360159054906101000a900460ff1681565b60006020528060005260406000206000915054906101000a900473ffffffffffffffffffffffffffffffffffffffff168156fea165627a7a723058200f1c4f2dbab6dc058bd2bee9e261882d885a80b3cb1b07bab8e3e40823fb25540029",
  "source": "pragma solidity ^0.5.0;\r\n\r\nimport \"../ProxyBaseStorage.sol\";\r\n\r\n///////////////////////////////////////////////////////////////////////////////////////////////////\r\n/**\r\n * @title DelegatesStorage\r\n * @dev Defining storage inheritance for the delegate contract(s).\r\n *      Note:   This is not the only way to define your storage, DYOR.\r\n */\r\n///////////////////////////////////////////////////////////////////////////////////////////////////\r\n\r\ncontract ProxyReceiverStorage_001_ERC1155MockReceiver is ProxyBaseStorage {\r\n\r\n    //////////////////////////////////////////// VARS /////////////////////////////////////////////\r\n\r\n    // Note: if you alter these values in another delegate impl it affects this too\r\n    bool public shouldReject;\r\n\r\n    ///////////////////////////////////////////////////////////////////////////////////////////////\r\n\r\n}\r\n\r\n///////////////////////////////////////////////////////////////////////////////////////////////////\r\n\r\ncontract ProxyReceiverStorage_002_ERCXXXXFuture is ProxyReceiverStorage_001_ERC1155MockReceiver {\r\n\r\n    //////////////////////////////////////////// VARS /////////////////////////////////////////////\r\n\r\n    bool public shouldRejectXXXX; // var renamed to be specific to prevent clash with parent data version\r\n\r\n    ///////////////////////////////////////////////////////////////////////////////////////////////\r\n\r\n}\r\n\r\n///////////////////////////////////////////////////////////////////////////////////////////////////",
  "sourcePath": "C:\\Users\\paulg\\Documents\\polats\\arcade\\contracts\\ProxyReceiver\\Delegates\\DelegatesStorage.sol",
  "compiler": {
    "name": "solc",
    "version": "0.5.2+commit.1df8f40c.Emscripten.clang"
  },
  "schemaVersion": "3.0.11",
  "updatedAt": "2019-06-22T03:29:57.444Z",
  "devdoc": {
    "methods": {}
  },
  "userdoc": {
    "methods": {},
    "notice": "////////////////////////////////////////////////////////////////////////////////////////////////"
  }
}