{
  "contractName": "ProxyBaseStorage",
  "abi": [
    {
      "constant": true,
      "inputs": [
        {
          "name": "",
          "type": "bytes4"
        }
      ],
      "name": "delegates",
      "outputs": [
        {
          "name": "",
          "type": "address"
        }
      ],
      "payable": false,
      "stateMutability": "view",
      "type": "function"
    }
  ],
  "bytecode": "0x608060405234801561001057600080fd5b50610139806100206000396000f3fe608060405234801561001057600080fd5b5060043610610048576000357c010000000000000000000000000000000000000000000000000000000090048063a0a2daf01461004d575b600080fd5b6100986004803603602081101561006357600080fd5b8101908080357bffffffffffffffffffffffffffffffffffffffffffffffffffffffff191690602001909291905050506100da565b604051808273ffffffffffffffffffffffffffffffffffffffff1673ffffffffffffffffffffffffffffffffffffffff16815260200191505060405180910390f35b60006020528060005260406000206000915054906101000a900473ffffffffffffffffffffffffffffffffffffffff168156fea165627a7a723058202b03f8881dbdd43d178948007fc2c37e2c54f4bb6029de6e69da25fb67eb35fd0029",
  "source": "pragma solidity ^0.5.0;\r\n\r\n///////////////////////////////////////////////////////////////////////////////////////////////////\r\n/**\r\n * @title ProxyBaseStorage\r\n * @dev Defining base storage for the proxy contract.\r\n */\r\n///////////////////////////////////////////////////////////////////////////////////////////////////\r\n\r\ncontract ProxyBaseStorage {\r\n\r\n    //////////////////////////////////////////// VARS /////////////////////////////////////////////\r\n\r\n    // maps functions to the delegate contracts that execute the functions.\r\n    // funcId => delegate contract\r\n    mapping(bytes4 => address) public delegates;\r\n\r\n    // array of function signatures supported by the contract.\r\n    bytes[] internal funcSignatures;\r\n\r\n    // maps each function signature to its position in the funcSignatures array.\r\n    // signature => index+1\r\n    mapping(bytes => uint256) internal funcSignatureToIndex;\r\n\r\n    // proxy address of itself, can be used for cross-delegate calls but also safety checking.\r\n    address proxy;\r\n\r\n    ///////////////////////////////////////////////////////////////////////////////////////////////\r\n\r\n}\r\n",
  "sourcePath": "C:\\Users\\paulg\\Documents\\polats\\arcade\\contracts\\ProxyReceiver\\ProxyBaseStorage.sol",
  "compiler": {
    "name": "solc",
    "version": "0.5.2+commit.1df8f40c.Emscripten.clang"
  },
  "schemaVersion": "3.0.11",
  "updatedAt": "2019-06-27T04:25:53.898Z",
  "devdoc": {
    "methods": {}
  },
  "userdoc": {
    "methods": {},
    "notice": "////////////////////////////////////////////////////////////////////////////////////////////////"
  }
}