{
  "contractName": "ProxyReceiver",
  "abi": [
    {
      "constant": true,
      "inputs": [
        {
          "name": "",
          "type": "bytes4"
        }
      ],
      "name": "delegates",
      "outputs": [
        {
          "name": "",
          "type": "address"
        }
      ],
      "payable": false,
      "stateMutability": "view",
      "type": "function"
    },
    {
      "inputs": [],
      "payable": false,
      "stateMutability": "nonpayable",
      "type": "constructor"
    },
    {
      "payable": true,
      "stateMutability": "payable",
      "type": "fallback"
    },
    {
      "anonymous": false,
      "inputs": [
        {
          "indexed": false,
          "name": "message",
          "type": "string"
        }
      ],
      "name": "CommitMessage",
      "type": "event"
    },
    {
      "anonymous": false,
      "inputs": [
        {
          "indexed": true,
          "name": "functionId",
          "type": "bytes4"
        },
        {
          "indexed": true,
          "name": "oldDelegate",
          "type": "address"
        },
        {
          "indexed": true,
          "name": "newDelegate",
          "type": "address"
        },
        {
          "indexed": false,
          "name": "functionSignature",
          "type": "string"
        }
      ],
      "name": "FunctionUpdate",
      "type": "event"
    },
    {
      "constant": false,
      "inputs": [
        {
          "name": "_delegate",
          "type": "address"
        },
        {
          "name": "_functionSignatures",
          "type": "string"
        },
        {
          "name": "_commitMessage",
          "type": "string"
        }
      ],
      "name": "updateContract",
      "outputs": [],
      "payable": false,
      "stateMutability": "nonpayable",
      "type": "function"
    }
  ],
  "bytecode": "0x60806040523480156200001157600080fd5b5030600360006101000a81548173ffffffffffffffffffffffffffffffffffffffff021916908373ffffffffffffffffffffffffffffffffffffffff160217905550606080604051908101604052806025815260200162001547602591399050600081805190602001209050600360009054906101000a900473ffffffffffffffffffffffffffffffffffffffff16600080837bffffffffffffffffffffffffffffffffffffffffffffffffffffffff19167bffffffffffffffffffffffffffffffffffffffffffffffffffffffff1916815260200190815260200160002060006101000a81548173ffffffffffffffffffffffffffffffffffffffff021916908373ffffffffffffffffffffffffffffffffffffffff16021790555060018290806001815401808255809150509060018203906000526020600020016000909192909190915090805190602001906200016d9291906200034a565b50506001805490506002836040518082805190602001908083835b602083101515620001af578051825260208201915060208101905060208303925062000188565b6001836020036101000a038019825116818451168082178552505050505050905001915050908152602001604051809103902081905550600360009054906101000a900473ffffffffffffffffffffffffffffffffffffffff1673ffffffffffffffffffffffffffffffffffffffff16600073ffffffffffffffffffffffffffffffffffffffff16827bffffffffffffffffffffffffffffffffffffffffffffffffffffffff19167f3234040ce3bd4564874e44810f198910133a1b24c4e84aac87edbf6b458f5353856040518080602001828103825283818151815260200191508051906020019080838360005b83811015620002bb5780820151818401526020810190506200029e565b50505050905090810190601f168015620002e95780820380516001836020036101000a031916815260200191505b509250505060405180910390a47faa1c0a0a78cec2470f9652e5d29540752e7a64d70f926933cebf13afaeda45de60405180806020018281038252603a8152602001806200156c603a913960400191505060405180910390a15050620003f9565b828054600181600116156101000203166002900490600052602060002090601f016020900481019282601f106200038d57805160ff1916838001178555620003be565b82800160010185558215620003be579182015b82811115620003bd578251825591602001919060010190620003a0565b5b509050620003cd9190620003d1565b5090565b620003f691905b80821115620003f2576000816000905550600101620003d8565b5090565b90565b61113e80620004096000396000f3fe608060405260043610610046576000357c01000000000000000000000000000000000000000000000000000000009004806361455567146101aa578063a0a2daf0146102a5575b600080600080357fffffffff00000000000000000000000000000000000000000000000000000000167bffffffffffffffffffffffffffffffffffffffffffffffffffffffff19167bffffffffffffffffffffffffffffffffffffffffffffffffffffffff1916815260200190815260200160002060009054906101000a900473ffffffffffffffffffffffffffffffffffffffff169050600073ffffffffffffffffffffffffffffffffffffffff168173ffffffffffffffffffffffffffffffffffffffff1614151515610183576040517f08c379a00000000000000000000000000000000000000000000000000000000081526004018080602001828103825260188152602001807f46756e6374696f6e20646f6573206e6f742065786973742e000000000000000081525060200191505060405180910390fd5b60405136600082376000803683855af43d806000843e81600081146101a6578184f35b8184fd5b3480156101b657600080fd5b506102a3600480360360608110156101cd57600080fd5b81019080803573ffffffffffffffffffffffffffffffffffffffff1690602001909291908035906020019064010000000081111561020a57600080fd5b82018360208201111561021c57600080fd5b8035906020019184600183028401116401000000008311171561023e57600080fd5b90919293919293908035906020019064010000000081111561025f57600080fd5b82018360208201111561027157600080fd5b8035906020019184600183028401116401000000008311171561029357600080fd5b909192939192939050505061033f565b005b3480156102b157600080fd5b506102fd600480360360208110156102c857600080fd5b8101908080357bffffffffffffffffffffffffffffffffffffffffffffffffffffffff19169060200190929190505050610eda565b604051808273ffffffffffffffffffffffffffffffffffffffff1673ffffffffffffffffffffffffffffffffffffffff16815260200191505060405180910390f35b60008073ffffffffffffffffffffffffffffffffffffffff168673ffffffffffffffffffffffffffffffffffffffff161415156103d657853b90506000811115156103d5576040517f08c379a00000000000000000000000000000000000000000000000000000000081526004018080602001828103825260398152602001806110da6039913960400191505060405180910390fd5b5b606085858080601f016020809104026020016040519081016040528093929190818152602001838380828437600081840152601f19601f8201169050808301925050505050505090506000806020830193508390508251840191506000806000806000805b878a1015610e6657895160001a92506029831415610e595789806001019a5050868a03935089965083895288805190602001209550600080877bffffffffffffffffffffffffffffffffffffffffffffffffffffffff19167bffffffffffffffffffffffffffffffffffffffffffffffffffffffff1916815260200190815260200160002060009054906101000a900473ffffffffffffffffffffffffffffffffffffffff169450600073ffffffffffffffffffffffffffffffffffffffff168f73ffffffffffffffffffffffffffffffffffffffff1614156108e7576002896040518082805190602001908083835b602083101515610550578051825260208201915060208101905060208303925061052b565b6001836020036101000a0380198251168184511680821785525050505050509050019150509081526020016040518091039020549150600082141515156105ff576040517f08c379a00000000000000000000000000000000000000000000000000000000081526004018080602001828103825260188152602001807f46756e6374696f6e20646f6573206e6f742065786973742e000000000000000081525060200191505060405180910390fd5b8180600190039250506001808054905003905080821415156106ff5760018181548110151561062a57fe5b9060005260206000200160018381548110151561064357fe5b90600052602060002001908054600181600116156101000203166002900461066c929190610f0d565b5060018201600260018381548110151561068257fe5b9060005260206000200160405180828054600181600116156101000203166002900480156106e75780601f106106c55761010080835404028352918201916106e7565b820191906000526020600020905b8154815290600101906020018083116106d3575b50509150509081526020016040518091039020819055505b60018054809190600190036107149190610f94565b506002896040518082805190602001908083835b60208310151561074d5780518252602082019150602081019050602083039250610728565b6001836020036101000a038019825116818451168082178552505050505050905001915050908152602001604051809103902060009055600080877bffffffffffffffffffffffffffffffffffffffffffffffffffffffff19167bffffffffffffffffffffffffffffffffffffffffffffffffffffffff1916815260200190815260200160002060006101000a81549073ffffffffffffffffffffffffffffffffffffffff0219169055600073ffffffffffffffffffffffffffffffffffffffff168573ffffffffffffffffffffffffffffffffffffffff16877bffffffffffffffffffffffffffffffffffffffffffffffffffffffff19167f3234040ce3bd4564874e44810f198910133a1b24c4e84aac87edbf6b458f53538c6040518080602001828103825283818151815260200191508051906020019080838360005b838110156108a857808201518184015260208101905061088d565b50505050905090810190601f1680156108d55780820380516001836020036101000a031916815260200191505b509250505060405180910390a4610e53565b600060028a6040518082805190602001908083835b60208310151561092157805182526020820191506020810190506020830392506108fc565b6001836020036101000a0380198251168184511680821785525050505050509050019150509081526020016040518091039020541415610c3257600073ffffffffffffffffffffffffffffffffffffffff168573ffffffffffffffffffffffffffffffffffffffff161415156109ff576040517f08c379a000000000000000000000000000000000000000000000000000000000815260040180806020018281038252600d8152602001807f46756e63496420636c6173682e0000000000000000000000000000000000000081525060200191505060405180910390fd5b8e600080887bffffffffffffffffffffffffffffffffffffffffffffffffffffffff19167bffffffffffffffffffffffffffffffffffffffffffffffffffffffff1916815260200190815260200160002060006101000a81548173ffffffffffffffffffffffffffffffffffffffff021916908373ffffffffffffffffffffffffffffffffffffffff1602179055506001899080600181540180825580915050906001820390600052602060002001600090919290919091509080519060200190610acb929190610fc0565b505060018054905060028a6040518082805190602001908083835b602083101515610b0b5780518252602082019150602081019050602083039250610ae6565b6001836020036101000a0380198251168184511680821785525050505050509050019150509081526020016040518091039020819055508e73ffffffffffffffffffffffffffffffffffffffff16600073ffffffffffffffffffffffffffffffffffffffff16877bffffffffffffffffffffffffffffffffffffffffffffffffffffffff19167f3234040ce3bd4564874e44810f198910133a1b24c4e84aac87edbf6b458f53538c6040518080602001828103825283818151815260200191508051906020019080838360005b83811015610bf3578082015181840152602081019050610bd8565b50505050905090810190601f168015610c205780820380516001836020036101000a031916815260200191505b509250505060405180910390a4610e52565b8e73ffffffffffffffffffffffffffffffffffffffff16600080887bffffffffffffffffffffffffffffffffffffffffffffffffffffffff19167bffffffffffffffffffffffffffffffffffffffffffffffffffffffff1916815260200190815260200160002060009054906101000a900473ffffffffffffffffffffffffffffffffffffffff1673ffffffffffffffffffffffffffffffffffffffff16141515610e51578e600080887bffffffffffffffffffffffffffffffffffffffffffffffffffffffff19167bffffffffffffffffffffffffffffffffffffffffffffffffffffffff1916815260200190815260200160002060006101000a81548173ffffffffffffffffffffffffffffffffffffffff021916908373ffffffffffffffffffffffffffffffffffffffff1602179055508e73ffffffffffffffffffffffffffffffffffffffff168573ffffffffffffffffffffffffffffffffffffffff16877bffffffffffffffffffffffffffffffffffffffffffffffffffffffff19167f3234040ce3bd4564874e44810f198910133a1b24c4e84aac87edbf6b458f53538c6040518080602001828103825283818151815260200191508051906020019080838360005b83811015610e16578082015181840152602081019050610dfb565b50505050905090810190601f168015610e435780820380516001836020036101000a031916815260200191505b509250505060405180910390a45b5b5b83890198505b89806001019a505061043b565b7faa1c0a0a78cec2470f9652e5d29540752e7a64d70f926933cebf13afaeda45de8c8c60405180806020018281038252848482818152602001925080828437600081840152601f19601f820116905080830192505050935050505060405180910390a1505050505050505050505050505050565b60006020528060005260406000206000915054906101000a900473ffffffffffffffffffffffffffffffffffffffff1681565b828054600181600116156101000203166002900490600052602060002090601f016020900481019282601f10610f465780548555610f83565b82800160010185558215610f8357600052602060002091601f016020900482015b82811115610f82578254825591600101919060010190610f67565b5b509050610f909190611040565b5090565b815481835581811115610fbb57818360005260206000209182019101610fba9190611065565b5b505050565b828054600181600116156101000203166002900490600052602060002090601f016020900481019282601f1061100157805160ff191683800117855561102f565b8280016001018555821561102f579182015b8281111561102e578251825591602001919060010190611013565b5b50905061103c9190611040565b5090565b61106291905b8082111561105e576000816000905550600101611046565b5090565b90565b61108e91905b8082111561108a57600081816110819190611091565b5060010161106b565b5090565b90565b50805460018160011615610100020316600290046000825580601f106110b757506110d6565b601f0160209004906000526020600020908101906110d59190611040565b5b5056fe5f64656c65676174652061646472657373206973206e6f74206120636f6e747261637420616e64206973206e6f742061646472657373283029a165627a7a72305820c6fa154c3439ebb96eb269ef65572226487d35221a5a85407c14f5afdd1116df0029757064617465436f6e747261637428616464726573732c737472696e672c737472696e67294164646564204552433135333820757064617465436f6e74726163742066756e6374696f6e20617420636f6e7472616374206372656174696f6e",
  "source": "pragma solidity ^0.5.0;\r\n\r\nimport \"./IERC1538.sol\";\r\nimport \"./ProxyBaseStorage.sol\";\r\n\r\n///////////////////////////////////////////////////////////////////////////////////////////////////\r\n/**\r\n * @title ProxyReceiver Contract\r\n * @dev Handles forwarding calls to receiver delegates while offering transparency of updates.\r\n *      Follows ERC-1538 standard.\r\n *\r\n *    NOTE: Not recommended for direct use in a production contract, as no security control.\r\n *          Provided as simple example only.\r\n */\r\n///////////////////////////////////////////////////////////////////////////////////////////////////\r\n\r\ncontract ProxyReceiver is ProxyBaseStorage, IERC1538 {\r\n\r\n    /////////////////////////////////////////// VARIABLES /////////////////////////////////////////\r\n\r\n    ////////////////////////////////////////// MODIFIERS //////////////////////////////////////////\r\n\r\n    /////////////////////////////////////////// EVENTS ////////////////////////////////////////////\r\n\r\n    ///////////////////////////////////////// CONSTANTS ///////////////////////////////////////////\r\n\r\n    ///////////////////////////////////////////////////////////////////////////////////////////////\r\n\r\n    constructor() public {\r\n\r\n        proxy = address(this);\r\n\r\n        //Adding ERC1538 updateContract function\r\n        bytes memory signature = \"updateContract(address,string,string)\";\r\n        bytes4 funcId = bytes4(keccak256(signature));\r\n        delegates[funcId] = proxy;\r\n        funcSignatures.push(signature);\r\n        funcSignatureToIndex[signature] = funcSignatures.length;\r\n        emit FunctionUpdate(funcId, address(0), proxy, string(signature));\r\n        emit CommitMessage(\"Added ERC1538 updateContract function at contract creation\");\r\n    }\r\n\r\n    ///////////////////////////////////////////////////////////////////////////////////////////////\r\n\r\n    function() external payable {\r\n        address delegate = delegates[msg.sig];\r\n        require(delegate != address(0), \"Function does not exist.\");\r\n        assembly {\r\n            let ptr := mload(0x40)\r\n            calldatacopy(ptr, 0, calldatasize)\r\n            let result := delegatecall(gas, delegate, ptr, calldatasize, 0, 0)\r\n            let size := returndatasize\r\n            returndatacopy(ptr, 0, size)\r\n            switch result\r\n            case 0 {revert(ptr, size)}\r\n            default {return (ptr, size)}\r\n        }\r\n    }\r\n\r\n    ///////////////////////////////////////////////////////////////////////////////////////////////\r\n\r\n    /// @notice Updates functions in a transparent contract.\r\n    /// @dev If the value of _delegate is zero then the functions specified\r\n    ///  in _functionSignatures are removed.\r\n    ///  If the value of _delegate is a delegate contract address then the functions\r\n    ///  specified in _functionSignatures will be delegated to that address.\r\n    /// @param _delegate The address of a delegate contract to delegate to or zero\r\n    /// @param _functionSignatures A list of function signatures listed one after the other\r\n    /// @param _commitMessage A short description of the change and why it is made\r\n    ///        This message is passed to the CommitMessage event.\r\n    function updateContract(address _delegate, string calldata _functionSignatures, string calldata _commitMessage) external {\r\n\r\n        // ***\r\n        // NEEDS SECURITY ADDING HERE, SUGGEST MULTI-ADDRESS APPROVAL SYSTEM OR EQUIVALENT.\r\n        // ***\r\n\r\n        // pos is first used to check the size of the delegate contract.\r\n        // After that pos is the current memory location of _functionSignatures.\r\n        // It is used to move through the characters of _functionSignatures\r\n        uint256 pos;\r\n        if(_delegate != address(0)) {\r\n            assembly {\r\n                pos := extcodesize(_delegate)\r\n            }\r\n            require(pos > 0, \"_delegate address is not a contract and is not address(0)\");\r\n        }\r\n\r\n        // creates a bytes version of _functionSignatures\r\n        bytes memory signatures = bytes(_functionSignatures);\r\n        // stores the position in memory where _functionSignatures ends.\r\n        uint256 signaturesEnd;\r\n        // stores the starting position of a function signature in _functionSignatures\r\n        uint256 start;\r\n        assembly {\r\n            pos := add(signatures,32)\r\n            start := pos\r\n            signaturesEnd := add(pos,mload(signatures))\r\n        }\r\n        // the function id of the current function signature\r\n        bytes4 funcId;\r\n        // the delegate address that is being replaced or address(0) if removing functions\r\n        address oldDelegate;\r\n        // the length of the current function signature in _functionSignatures\r\n        uint256 num;\r\n        // the current character in _functionSignatures\r\n        uint256 char;\r\n        // the position of the current function signature in the funcSignatures array\r\n        uint256 index;\r\n        // the last position in the funcSignatures array\r\n        uint256 lastIndex;\r\n        // parse the _functionSignatures string and handle each function\r\n        for (; pos < signaturesEnd; pos++) {\r\n            assembly {char := byte(0,mload(pos))}\r\n            // 0x29 == )\r\n            if (char == 0x29) {\r\n                pos++;\r\n                num = (pos - start);\r\n                start = pos;\r\n                assembly {\r\n                    mstore(signatures,num)\r\n                }\r\n                funcId = bytes4(keccak256(signatures));\r\n                oldDelegate = delegates[funcId];\r\n                if(_delegate == address(0)) {\r\n                    index = funcSignatureToIndex[signatures];\r\n                    require(index != 0, \"Function does not exist.\");\r\n                    index--;\r\n                    lastIndex = funcSignatures.length - 1;\r\n                    if (index != lastIndex) {\r\n                        funcSignatures[index] = funcSignatures[lastIndex];\r\n                        funcSignatureToIndex[funcSignatures[lastIndex]] = index + 1;\r\n                    }\r\n                    funcSignatures.length--;\r\n                    delete funcSignatureToIndex[signatures];\r\n                    delete delegates[funcId];\r\n                    emit FunctionUpdate(funcId, oldDelegate, address(0), string(signatures));\r\n                }\r\n                else if (funcSignatureToIndex[signatures] == 0) {\r\n                    require(oldDelegate == address(0), \"FuncId clash.\");\r\n                    delegates[funcId] = _delegate;\r\n                    funcSignatures.push(signatures);\r\n                    funcSignatureToIndex[signatures] = funcSignatures.length;\r\n                    emit FunctionUpdate(funcId, address(0), _delegate, string(signatures));\r\n                }\r\n                else if (delegates[funcId] != _delegate) {\r\n                    delegates[funcId] = _delegate;\r\n                    emit FunctionUpdate(funcId, oldDelegate, _delegate, string(signatures));\r\n\r\n                }\r\n                assembly {signatures := add(signatures,num)}\r\n            }\r\n        }\r\n        emit CommitMessage(_commitMessage);\r\n    }\r\n\r\n    ///////////////////////////////////////////////////////////////////////////////////////////////\r\n\r\n}\r\n\r\n///////////////////////////////////////////////////////////////////////////////////////////////////\r\n",
  "sourcePath": "C:/Users/paulg/Documents/polats/arcade/contracts/ProxyReceiver/ProxyReceiver.sol",
  "compiler": {
    "name": "solc",
    "version": "0.5.2+commit.1df8f40c.Emscripten.clang"
  },
  "schemaVersion": "3.0.11",
  "updatedAt": "2019-06-22T03:29:57.481Z",
  "devdoc": {
    "methods": {}
  },
  "userdoc": {
    "methods": {
      "constructor": "////////////////////////////////////////////////////////////////////////////////////////////",
      "updateContract(address,string,string)": {
        "notice": "This message is passed to the CommitMessage event."
      }
    },
    "notice": "////////////////////////////////////////////////////////////////////////////////////////////////"
  }
}